:020000040040BA
:10000000B04F0020454540001546400015464000D1
:10001000154640001546400015464000000000000F
:100020000000000000000000000000001546400035
:100030001546400000000000154640006D324000AB
:100040001546400015464000154640001546400044
:100050001546400015464000154640001546400034
:100060008D2F40001546400000000000350740007D
:100070004D0740001546400015464000154640001B
:100080001546400015464000154640001546400004
:1000900015464000154640001546400021324000FC
:1000A00015464000154640001546400015464000E4
:1000B000154640001546400015464000000000006F
:1000C0000000000000000000000000000000000030
:1000D0000000000000000000000000000000000020
:1000E0000000000000000000000000000000000010
:1000F0000000000000000000000000001546400065
:1001000015464000154640000000000000000000B9
:1001100000000000000000000000000000000000DF
:1001200000000000000000000000000000000000CF
:1001300000000000000000000000000000000000BF
:10014000000000000000000010B5054C237833B912
:10015000044B13B10448AFF300800123237010BD9A
:10016000080D002000000000B4DA41000C4B43B140
:100170000C480D4910B5AFF300800C48036823B953
:1001800010BD0A48036833B97047094B002BF7D0FC
:10019000BDE810401847064B002BF5D0184700BFAC
:1001A00000000000B4DA41000C0D0020B4DA410078
:1001B0000000000080B485B000AFF860B9607A60DC
:1001C0007B68002B03D0FB68BA685A6602E0FB68C4
:1001D000BA681A6600BF1437BD465DF8047B7047E5
:1001E00080B483B000AF786039607B683A685A6346
:1001F00000BF0C37BD465DF8047B704780B487B004
:1002000000AFF860B9607A60FB687A685A64BB68CE
:10021000B3F1805F2BD0B3F1805F05D8002B3FD0C6
:10022000B3F1006F0AD037E0B3F1405F38D0B3F1DB
:10023000605F35D0B3F1205F32D02DE0FB681B6FDB
:100240007B61FB681A6F7B68D9437B690B401A405E
:10025000FB681A67FB685B6F7B61FB685A6F7B68A2
:10026000D9437B690B401A40FB685A6714E0FB686E
:100270001B6F7B617A687B691A43FB681A67FB68AE
:100280005B6F7B61FB685A6F7B68D9437B690B406E
:100290001A40FB685A6700BFFB687A685A6000E042
:1002A00000BF1C37BD465DF8047B704780B584B045
:1002B00000AFF860B9607A60B968F868194B984780
:1002C0007B6803F001031A46B968F868164B984733
:1002D0007B6803F00A03002B03D0FB68BA681A623C
:1002E00002E0FB68BA685A627B6803F00203002BE5
:1002F00004D0FB68BA68C3F8802008E07B6803F08C
:100300000803002B03D0FB68BA68C3F88420FB689D
:10031000BA685A61FB68BA681A6000BF1037BD46F8
:1003200080BD00BFDD044000B501400080B584B051
:1003300000AFF860B9607A603B60B968F868124B4A
:100340009847BA69B968F868104B98473B68002B22
:1003500003D0FB68BA681A6502E0FB68BA685A65A0
:100360007B68002B03D0FB68BA681A6302E0FB6865
:10037000BA685A63FB68BA681A61FB68BA681A609F
:1003800000BF1037BD4680BDDD044000B501400010
:1003900090B587B002AFF860B9607A603B60BB6827
:1003A000B3F1205F1ED0B3F1205F06D8B3F1006F28
:1003B0000AD0B3F1805F07D03AE0B3F1405F17D0C5
:1003C000B3F1605F14D033E07A68B968F8681C4B09
:1003D00098473B6803F001031A467968F868194B9F
:1003E000984727E03A687968F868174B984721E002
:1003F000BB68B3F1605F0CBF01230023DBB21A4678
:100400003B6803F00403002B14BF01230023DBB27D
:1004100019463B6803F00103002B14BF012300239E
:10042000DBB200930B467968F868084CA04701E0FE
:10043000002300E0012318461437BD4690BD00BFDD
:10044000FD014000B5014000AD0240002D03400019
:1004500080B485B000AFF860B9607A607B6803F063
:100460001003002B20D0FB68BA68C3F8B0207B686B
:1004700003F02003002B04D0FB68BA68C3F8D42033
:1004800003E0FB68BA68C3F8D0207B6803F0400340
:10049000002B04D0FB68BA68C3F8C02008E0FB68F2
:1004A000BA68C3F8C42003E0FB68BA68C3F8B42094
:1004B00000BF1437BD465DF8047B704780B483B03D
:1004C00000AF786039607B68DB6C7B683A681A64DF
:1004D00000BF0C37BD465DF8047B704780B483B025
:1004E00000AF786039607B683A685A6400BF0C37A7
:1004F000BD465DF8047B704780B483B000AF786080
:100500007B68DB6C18460C37BD465DF8047B704792
:1005100080B483B000AF78607B689B6C18460C3762
:10052000BD465DF8047B704780B483B000AF0346DE
:10053000FB71094997F907305B09FA7902F01F024C
:10054000012000FA02F241F8232000BF0C37BD461B
:100550005DF8047B704700BF00E100E080B483B029
:1005600000AF0346FB71094997F907305B09FA7937
:1005700002F01F02012000FA02F2203341F823208A
:1005800000BF0C37BD465DF8047B704700E100E01A
:1005900080B483B000AF0346FB71094997F9073077
:1005A0005B09FA7902F01F02012000FA02F26033BF
:1005B00041F8232000BF0C37BD465DF8047B70472F
:1005C00000E100E080B483B000AF03463960FB7106
:1005D00097F90730002B0BDA0D49FB7903F00F0375
:1005E000043B3A68D2B21201D2B20B441A7609E047
:1005F000084997F907303A68D2B21201D2B20B44D7
:1006000083F8002300BF0C37BD465DF8047B7047BC
:1006100000ED00E000E100E080B584B000AF78605C
:1006200039607868264B9847F8607868254B98477A
:100630000246FB681340FB60FB68002B3CD00023A4
:10064000BB6034E0204ABB681B0113441A683B6856
:100650009A4226D11C4ABB681B01134404331A6812
:10066000FB681340002B1CD0174ABB681B011344C6
:100670000C331B681449BA6812010A441068124905
:10068000BA6812010A4404321268114698470E4AA9
:10069000BB681B01134404331B68DB43FA68134037
:1006A000FB60BB680133BB60BB68062B03D8FB68EB
:1006B000002BC7D100E000BF00BF1037BD4680BD92
:1006C000F904400011054000240D002080B586B0DB
:1006D00000AFF860B9607A603B60134B1B68062B73
:1006E00001D901231CE0104B1B681B010F4A134466
:1006F0007B617B69BA681A607B697A685A607B693A
:100700003A689A607B693A6ADA60074B1B68013382
:10071000054A13603A687968F868054B98470023E2
:1007200018461837BD4680BD940D0020240D0020CA
:100730005104400080B500AF0B210248024B98479E
:1007400000BF80BD000E0E401906400080B500AF0E
:100750000C210248024B984700BF80BD00100E409C
:100760001906400080B586B000AFF8600B467A608D
:10077000FB7200237B61F868134B984778614FF058
:10078000FF31F868114B9847F868114B984797F973
:100790000B3018460F4B984797F90B3018460E4B05
:1007A000984797F90B30796818460C4B984797F99A
:1007B0000B3018460A4B98477969F868094B9847F7
:1007C00000BF1837BD4680BD11054000DD04400064
:1007D000F90440005D05400091054000C50540005A
:1007E00029054000BD04400080B487B000AFF86028
:1007F000B9607A60FA68BB689B0113447B617B69CE
:1008000002221A607B694FF0FF329A627B691B6A91
:100810007B697A685A6000BF1C37BD465DF8047B6F
:10082000704780B483B000AF786039607A683B6805
:100830009B01134405221A6000BF0C37BD465DF8CA
:10084000047B704780B483B000AF786039607A6809
:100850003B689B01134410331B6818460C37BD4698
:100860005DF8047B704780B483B000AF7860396076
:100870007A683B689B0113441C331B6818460C378D
:10088000BD465DF8047B704780B485B000AFF8606A
:10089000B9607A60FA68BB689B0113441C337A68BC
:1008A0001A6000BF1437BD465DF8047B704780B402
:1008B00087B000AFF860B9607A60FA68BB689B01E6
:1008C00013447B617B697A685A6200BF1C37BD465E
:1008D0005DF8047B704780B485B000AF7860396004
:1008E0007A683B689B011344FB60FB68DB6A18462F
:1008F0001437BD465DF8047B704780B485B000AF07
:10090000786039607A683B689B011344FB60FB6840
:100910001B6A18461437BD465DF8047B704780B4E7
:100920008DB000AFF860B9607A603B6002233B6134
:1009300008237B612023BB618023FB61BB6BDB0B46
:100940003B620023FB621AE0FB6A9B0007F1300266
:10095000134453F8203CBA68B2FBF3F3BB62BB6AA2
:100960001B0C7B62FA68BB6A9A4201D9002323E020
:10097000FA687B6A9A4206D2FB6A0133FB62FB6A21
:10098000042BE1D900E000BFFB6A042B01D900234E
:1009900012E07B68002B08D0FB6A9B0007F1300255
:1009A000134453F8202C7B681A603B68002B02D05C
:1009B0003B68FA6A1A60012318463437BD465DF871
:1009C000047B704780B483B000AF78607B680822F6
:1009D0001A607B6820221A607B6804221A6000BFBC
:1009E0000C37BD465DF8047B7047000080B584B0CD
:1009F00000AF786039600023FB607B684FF0FF3206
:100A00009A627B681B6A78680E4B984778680E4B31
:100A100098473B6859683B681B681A4678680B4BD7
:100A200098470346012B01D10123FB603B685B7AA9
:100A3000012B02D17B6840221A60FB6818461037F0
:100A4000BD4680BD050D4000C5094000510A40006B
:100A500080B487B000AFF860B9607A6000237B6132
:100A6000BB68164A934201D9012321E0BB685B00B1
:100A70007A68B2FBF3F3033B3B6105E07B6901332A
:100A80007B613B695B083B613B69FF2B02D97B695A
:100A9000062BF3D93B69DAB23B691B029BB21A43BE
:100AA0007B691B0403F4E0231A43FB681A610023EB
:100AB00018461C37BD465DF8047B7047801A060057
:100AC00080B485B000AF786039603B68002B01D1FD
:100AD00000231DE07B681B78FB603B68012B09DD70
:100AE000FB681B02FB607B6801331B781A46FB68BE
:100AF0001343FB603B68022B09DDFB681B02FB60B4
:100B00007B6802331B781A46FB681343FB60FB6863
:100B100018461437BD465DF8047B704780B588B031
:100B200000AF786039603B68DB68FB613B689B68BD
:100B3000BB610023FB7543F698233B61FB69002BE7
:100B400001D1012369E07B6800225A603B681B7C6D
:100B50001B0403F4FE023B685B681B0203F4407352
:100B6000134343F480527B685A607B680022DA604A
:100B70003A683B685B68194610462A4B984702461C
:100B80007B68DA60FB69012B05D17B6803221A6060
:100B90000123FB7534E07B6801221A600023FB759A
:100BA0002EE07B681B6AFB60FB6803F48073002BFC
:100BB00001D0052331E03B695A1E3A61002B01D177
:100BC00009232AE0FB6803F00203002B00D117E0A1
:100BD000FB69022B07D1FB7D002B04D17B6802222D
:100BE0001A600123FB75BB695A1CBA617A68126BE3
:100BF000D2B21A70FB69013BFB6143F698233B615B
:100C0000FB69002BCDD100BF7B681B6A03F0010399
:100C1000002BF9D07B681B6A002318462037BD469D
:100C200080BD00BFC10A400080B586B000AF7860CB
:100C300039603B68DB687B613B689B683B617B6933
:100C4000002B01D1012356E07B6800225A603B68EB
:100C50001B7C1B0403F4FE023B685B681B0203F46D
:100C600040731A437B685A607B680022DA603A68F6
:100C70003B685B6819461046214B984702467B68E3
:100C8000DA6019E07B681B6AFB60FB6803F4807321
:100C9000002B01D005232EE0FB6803F00403002B9A
:100CA00000D109E03B695A1C3A611B781A467B68FF
:100CB0005A637B69013B7B617B69002BE2D17B68D6
:100CC0001B6AFB60FB6803F48073002B01D00523D3
:100CD00011E0FB6803F00403002B00D1EFE700BF35
:100CE0007B6802221A6000BF7B681B6A03F0010365
:100CF000002BF9D0002318461837BD4680BD00BF31
:100D0000C10A400080B483B000AF78607B68802265
:100D10001A607B681B6B00BF0C37BD465DF8047B17
:100D20007047000080B483B000AF03463960FB71A8
:100D300097F90730002B0BDA0D49FB7903F00F030D
:100D4000043B3A68D2B21201D2B20B441A7609E0DF
:100D5000084997F907303A68D2B21201D2B20B446F
:100D600083F8002300BF0C37BD465DF8047B704755
:100D700000ED00E000E100E080B582B000AF7860F7
:100D80007B68013BB3F1807F01D301230FE00A4A66
:100D90007B68013B53600F214FF0FF30074B9847B2
:100DA000054B00229A60044B07221A600023184664
:100DB0000837BD4680BD00BF10E000E0250D4000B3
:100DC00080B483B000AF78607B68072B25D801A280
:100DD00052F823F0F50D4000FB0D4000010E4000DD
:100DE000070E40000B0E40000F0E4000130E400097
:100DF000170E40004FF4FA4310E04FF400430DE0AB
:100E00004FF400430AE0084B08E0084B06E0084BAB
:100E100004E0002302E0002300E0002318460C3722
:100E2000BD465DF8047B704700127A000024F40090
:100E300000366E0180B500AF0120044B9847024692
:100E400040F64E6303FB02F3184680BDC10D40001F
:100E500080B500AF024B98470346184680BD00BFDF
:100E6000350E400080B582B000AF78607868034BE3
:100E7000984700BF0837BD4680BD00BF59434000BA
:100E800080B48BB000AF78607B687B627B6A3B622A
:100E90003B6AFB61FB695B09BB61BB6903F500133E
:100EA00003F207735B027B617B6A3B613B6903F082
:100EB0001F03012202FA03F3FB607B69DA6B7B6A92
:100EC000BB60BB6803F01F03012101FA03F3134069
:100ED000002B03D07B69FA685A6302E07B69FA68E9
:100EE0001A6300BF2C37BD465DF8047B70470000D5
:100EF00080B582B000AF78600B46FB707B683E4ADD
:100F000093420AD100BFFB78194678683B4B98475B
:100F10000346002BF7D1012369E07B68384A9342EE
:100F20000AD100BFFB7819467868344B98470346CE
:100F3000002BF7D101235AE07B68324A93420AD151
:100F400000BFFB78194678682C4B98470346002B66
:100F5000F7D101234BE07B682B4A93420AD100BFB3
:100F6000FB7819467868254B98470346002BF7D144
:100F700001233CE07B68254A93420AD100BFFB78FD
:100F8000194678681D4B98470346002BF7D101237B
:100F90002DE07B681E4A93420AD100BFFB781946B8
:100FA0007868164B98470346002BF7D101231EE0C3
:100FB0007B68184A93420AD100BFFB7819467868CB
:100FC0000E4B98470346002BF7D101230FE07B68B7
:100FD000114A93420AD100BFFB7819467868074B43
:100FE00098470346002BF7D1012300E00023184661
:100FF0000837BD4680BD00BF00C20040313540000B
:1010000000020240004202400082014000C2014052
:10101000008200400002044000420340B0B582B0AC
:1010200000AF786039604FF49F6200217868094B07
:1010300098477A683B6814461D460FCD0FC495E863
:10104000030084E80300044A7B68136000BF08378C
:10105000BD46B0BD31444100801F002080B483B044
:1010600000AF78607B6800221A607B6800225A60BB
:101070007B6800229A6000BF0C37BD465DF8047B98
:101080007047000090B587B002AFF860B9607A6031
:101090003B60BB6A019397F8243000933B6A3A683F
:1010A000B968F868024CA04700BF1437BD4690BD30
:1010B0005DFE400080B483B000AF78607B681A8921
:1010C0007B68DB889A4207D17B68DA7A7B689B7AF7
:1010D0009A4201D1012300E0002318460C37BD4697
:1010E0005DF8047B7047000080B582B000AF786087
:1010F0000620034B984700BF0837BD4680BD00BFA0
:10110000810E400098B500AF034B984703460C464C
:101110001846214698BD00BFC931400080B584B053
:1011200000AF78604FF0FF33FB6072B60E480F4B94
:1011300098470346002B04D10B480D4B98470346B4
:10114000FB6062B6FB68B3F1FF3F05D0FB68DBB222
:1011500019460848084B9847FB68B3F1FF3FE1D1B7
:1011600000BF1037BD4680BDD01E0020B510400026
:101170004700410088190020E5F7400090B58DB088
:1011800004AF0023FB61464B9847464B9847172016
:10119000454B9847454B984745490520454B98474F
:1011A00045490320454B984745490320434B984701
:1011B00041490320414B98474248434B9847434B92
:1011C0009847434B98470246424BA3FB02239B0997
:1011D0001846414B984700237B60404BBB60404B17
:1011E000FB604FF480433B614FF480437B613D4B98
:1011F00098470346BB613B1D19463B483B4B98470C
:101200003B4B98473B4B98470246FB691344FB61B5
:101210003949F869394B98470022394939483A4BDE
:101220009847002239493A483A4B98473A483B4B4D
:101230009847012302930123019300230093384B25
:10124000384A39493448394CA0474FF47A730293ED
:101250000223019300230093354B364A36492E482A
:10126000324CA04700213448344B984700212E4887
:10127000324B98471420324B98472748314B9847B8
:10128000314B1B68012BF8D1304A00211648304BF6
:10129000984772B62C4B00221A6062B6EDE700BF89
:1012A000193B4000A53F4000650E4000F52E400070
:1012B000551340000DFF40004881410051FF4000A0
:1012C0006C8141007D2E4000952E4000FD30400095
:1012D000510E4000D34D6210790D40009132400014
:1012E000C5324000ED304000981900201D1040002C
:1012F000691740008116400090814100AD18400000
:101300008519400088190020B5F74000E918400011
:1013100070180020D9F14000B01E00205D10400080
:101320001D114000B0814100C00D0020851040001B
:10133000E9104000C48141009C0D0020EDFE4000FA
:101340000D3140002DFE4000980D00207D1A400018
:1013500085B34000B0B58CB000AFF860B9607A607A
:101360000023BB622F4BFB622F4B07F110041D467D
:101370000FCD0FC495E8030084E80300BB6A294A37
:101380009818BB6AC3F58071FB689B0007F13002B7
:10139000134453F8203C254A254CA04703461A46DF
:1013A000BB6A1344BB62BB6AFF2B32D8BB6A1D4ABF
:1013B0009818BB6AC3F580717B68BA681D4CA0475A
:1013C00003461A46BB6A1344BB62BB6AFF2B22D892
:1013D000BB6A144A9818BB6AC3F58073164A19464B
:1013E000134B984703461A46BB6A1344BB62BB6A59
:1013F000FF2B12D808E0FB6A1B7819460F48104BE8
:101400009847FB6A0133FB62FB6A1B78002BF2D121
:1014100004E000BF02E000BF00E000BF3037BD467F
:10142000B0BD00BFE40D002008824100D48141001E
:10143000CD444100715A4100D8814100004203402F
:10144000F10E400000000000F0B583B000AF7860FE
:101450007B68002B24D07B681D464FF00006204B94
:10146000984703464FF0000403FB06F105FB04F226
:101470000A44A5FB03342244144617A2D2E9001201
:101480005D1844EB020628463146164C164A4FF0CA
:101490000003A04703460C461846144B984716E035
:1014A0000F4B984703464FF000040BA2D2E90012FD
:1014B0005D1844EB0206284631460A4C0A4A4FF0B2
:1014C0000003A04703460C461846084B984700BF48
:1014D0000C37BD46F0BD00BF7F9FD5000000000067
:1014E000510E4000693E4100809FD5000100002060
:1014F00080B400AF00231846BD465DF8047B7047FA
:1015000080B582B000AF78607B68DBB219460748CF
:10151000074B98470346002B01D07B6801E04FF052
:10152000FF3318460837BD4680BD00BF00C20040EB
:10153000F10E400080B483B000AF78607B68072B69
:1015400025D801A252F823F0691540006F1540001C
:10155000751540007B1540007F1540008315400045
:10156000871540008B1540004FF4FA4310E04FF40C
:1015700000430DE04FF400430AE0084B08E0084B3D
:1015800006E0084B04E0002302E0002300E0002313
:1015900018460C37BD465DF8047B704700127A0090
:1015A0000024F40000366E0180B500AF0120044B2A
:1015B0009847024640F64E6303FB02F3184680BD8F
:1015C0003515400080B500AF024B984703461846DA
:1015D00080BD00BFA9154000F0B583B000AF7860B2
:1015E0007B68002B24D07B681D464FEAE576204BB4
:1015F000984703464FF0000403FB06F105FB04F295
:101600000A44A5FB03342244144617A2D2E900126F
:101610005D1844EB020628463146164C164A4FF038
:101620000003A04703460C461846144B984716E0A3
:101630000F4B984703464FF000040BA2D2E900126B
:101640005D1844EB0206284631460A4C0A4A4FF020
:101650000003A04703460C461846084B984700BFB6
:101660000C37BD46F0BD00BF7F9FD50000000000D5
:10167000C5154000693E4100809FD5000100002053
:1016800080B582B000AF00237B6008490320084B7F
:10169000984743F2DD7207490748084B984778603E
:1016A0007B6818460837BD4680BD00BF48BA410078
:1016B00051FF4000208241009819002091AF400066
:1016C00080B582B000AF00237B6017E07B68042BFD
:1016D00002D07B680C2B07D17B68DBB21A460B4922
:1016E0000B480C4B984706E07B68DBB21A460A4968
:1016F0000748084B98477B6801337B607B68132B56
:10170000E4DD00BF0837BD4680BD00BF24BA4100FC
:1017100098190020F9AC400000BA410080B500AF34
:101720000D4A02210D480E4B98470B4A00210B48E9
:101730000B4B98470B4A03210848094B9847094A25
:1017400001210648064B9847064A05210348044BE9
:10175000984700BF80BD00BFFC0000209819002002
:101760008DAB40000001002080B584B000AFFF23A6
:10177000FB71FB1D19463B483B4B9847B860FB7912
:101780001A463A4903203A4B98470023FB7306E078
:10179000E022FB799A4206D0FB7B0133FB73FB7B93
:1017A000002BF5D000E000BFFB7B012B07D1FB79BC
:1017B0001A46304901202E4B9847BB684EE0294815
:1017C0002D4B98472D490420294B984743F2DD7251
:1017D0002B4924482B4B9847B860BB68002B05D099
:1017E00029490120224B9847BB6837E0274903204D
:1017F0001F4B98470C2202211A48254B984719483D
:10180000244B98470346B3F1FF3F14BF0123002345
:10181000DBB21A46204B1A601F4B1B68002B11D1FC
:101820000E2202210F481A4B98470E48194B984731
:101830000346B3F1FF3F14BF01230023DBB21A4676
:10184000154B1A60154B9847154B98470548154B93
:10185000984715490420064B98470023184610372F
:10186000BD4680BD9819002009AA400058BA410021
:1018700051FF400070BA41002DAA400090BA4100CB
:101880002082410039AB4000B4BA4100E4BA4100C3
:101890003148400055AE4000E80E0020C11640001F
:1018A0001D174000C5AA4000FCBA410090B585B0A4
:1018B00002AF786039607B68002B0BDA7868074BE1
:1018C0009847034600937B683A6805490120054C18
:1018D000A047FEE700BF0C37BD4690BD51FB40005E
:1018E00010BB410051FF400090B589B002AFBA6013
:1018F0007B600346FB730B46BB73FB7B002B1ED147
:10190000BB7B164AB9681846154B98470246134BDD
:101910005A60B97B07F1160301934FF4807300936B
:10192000104B0E4A1048114CA0470346002B0CD117
:10193000FB8A1A460B490E480E4B984704E00E49A5
:1019400002200E4B984700BF05E000BF0C49022063
:101950000A4B984700BF1C37BD4690BDEC0E0020D7
:1019600065214000700F00207018002069F34000CE
:101970008819002025F9400024BB410051FF400098
:101980005CBB410090B587B000AF0346B9607A6098
:10199000FB7341F288337B61FB7B072B41D801A2AB
:1019A00052F823F0C5194000191A4000D31940001D
:1019B000191A4000191A4000011A4000191A400073
:1019C000191A4000BB681A4618490120184B98475D
:1019D00027E03B7A19461748174B984738613B690F
:1019E000002B1BDA3B7A1A463B6914490520104C40
:1019F000A04713E00A20124B98477B690A3B7B61A2
:101A00003B7A18460F4B98470346B3F1FF3F07D187
:101A10007B69002BEEDC03E000BF02E000BF00E0CA
:101A200000BF00BF1C37BD4690BD00BF9CBB41003E
:101A300051FF40007018002021F24000DCBB410043
:101A4000491440000115400080B582B000AF094B39
:101A500098470346FB71084B98470346BB71BA7918
:101A6000FB79934228BF1346DBB218460837BD46C0
:101A700080BD00BF559D40006D9D400090B5A1B058
:101A800000AFF860C7E900230B46FB72FB7A944A6B
:101A9000D35C87F87F3007F11003502200211846ED
:101AA000904B984797F87F303B61D7E90034C7E9FE
:101AB000063497F87F30013B202B00F20C8101A205
:101AC00052F823F0F71B4000151C4000A11C4000F9
:101AD000B91B4000D71C4000D71C4000D71C400059
:101AE000D71C4000D71B4000F71B4000331C4000B0
:101AF000D71C4000D71C4000811B40004F1C4000F9
:101B0000491B4000771C4000771C40008D1C4000A2
:101B1000331C4000D71C4000771C4000D71C4000FD
:101B2000D71C4000771C40006D1C4000D71C4000B3
:101B30007D1C4000D71C4000D71C4000D71C400033
:101B4000B51C4000B51C400007F164031822D7F80B
:101B500090101846644B984707F1200307F1640280
:101B600007CA83E8070007F12C0307F1700207CAD0
:101B700083E80700D7F894301B7887F83830A3E063
:101B800007F164031822D7F890101846564B98476F
:101B900007F1200307F1640207CA83E8070007F191
:101BA0002C0307F1700207CA83E80700D7F89430C6
:101BB0001B7887F8383087E007F1100310330C22C8
:101BC000D7F890101846484B9847D7F894301B78B0
:101BD00087F8383078E007F1100310330C22D7F87B
:101BE00090101846404B9847404B98470346DBB24D
:101BF00087F8383068E007F1100310330C22D7F86B
:101C000090101846384B9847D7F894301B7887F8CF
:101C1000383059E007F1100310330C22D7F8901038
:101C20001846314B9847D7F894301B7887F83830EE
:101C30004AE0D7F894301B683B6307F11003103378
:101C40001022D7F890101846274B98473CE007F130
:101C5000100310331022D7F890101846224B9847E3
:101C6000234B9847034687F834302DE0D7F890305F
:101C70001B683B6228E001233B6225E001233B62B5
:101C8000D7F890301B7887F820301DE007F110035B
:101C900010330822D7F890101846134B984713E0DA
:101CA00007F1100310330C22D7F8901018460E4B92
:101CB000984709E007F1100310330C22D7F8901071
:101CC0001846094B984700BF07F11003002118463A
:101CD000084B984700E000BF8437BD4690BD00BF69
:101CE000040100203144410035424100559D40002F
:101CF000491A4000F91C400090B587B002AF7860E7
:101D000039607B681B681A46134B1A60124B00221D
:101D10005A6012497868124B984707F10E030193F5
:101D20004FF4807300930F4B0B4A30210E480F4C39
:101D3000A0470346002B06D1FB891A4609490C48E7
:101D40000C4B984705E000BF0B4902200B4B98470E
:101D500000BF1437BD4690BD7010002078100020E1
:101D6000811D4000F410002070180020A5F64000EE
:101D70008819002025F940000CBC410051FF4000AB
:101D800090B583B000AF786039607B68D3E90234E6
:101D90001A463B681A607B681B68412B00F25D8124
:101DA00001A252F823F000BF5B204000B11E4000AA
:101DB000431F4000C71F4000D11E40005B20400071
:101DC0005B2040005B2040005B204000B11E4000D3
:101DD000B11E4000951F40005B2040005B2040008A
:101DE000631F4000231F4000F11E40004F204000B1
:101DF0004F20400029204000951F40005B204000FC
:101E00004F2040005B2040005B2040004F204000FE
:101E1000372040005B2040004F2040005B20400006
:101E20005B2040005B20400009204000092040006A
:101E30005B2040005B2040005B2040005B204000B6
:101E40005B2040005B2040005B2040005B204000A6
:101E50005B2040005B2040005B2040005B20400096
:101E60005B2040005B2040005B2040005B20400086
:101E70005B2040005B2040005B2040005B20400076
:101E80005B2040005B2040005B204000432040007E
:101E90005B2040005B2040005B2040005B20400056
:101EA0005B2040005B204000231F4000231F4000B8
:101EB0007B6803F110003B68083310220321694C52
:101EC000A0477B6893F828301A463B685A60C5E003
:101ED0007B6803F110003B68083310220321614C3A
:101EE000A0477B6893F828301A463B685A60B5E0F3
:101EF0007B6803F110003B68083310220321594C22
:101F0000A0477B6803F11C003B68143310220321B7
:101F1000544CA0477B6893F828301A463B685A60B7
:101F20009CE07B6803F110003B6808331E2204210B
:101F30004C4CA0477B6893F824301A463B685A60A3
:101F40008CE07B6803F110003B680833102203210A
:101F5000444CA0477B6893F828301A463B685A6087
:101F60007CE07B6803F110003B68083310220321FA
:101F70003C4CA0477B6803F11C003B6814331022E3
:101F80000321384CA0477B6893F828301A463B68F9
:101F90005A6063E07B6803F110003B6808331E223F
:101FA0000421304CA0477B6803F120003B681833C4
:101FB000102201212B4CA0477B6893F824301A464D
:101FC0003B685A604AE07B6803F110003B680833C5
:101FD00010220121234CA0477B6803F114003B68C9
:101FE0000C33102201211F4CA0477B6803F118001D
:101FF0003B681033102201211A4CA0477B681B7FDD
:102000001A463B685A6029E07B681B691A463B68A0
:102010009A607B685B691A463B68DA607B689B69FB
:102020001A463B681A6119E07B68D3E904341A4602
:102030003B689A6012E07B681B69DAB23B681A72EF
:102040000CE07B681B69DAB23B681A7206E07B68B9
:102050001B69DAB23B681A7200E000BF00BF0C37A0
:10206000BD4690BDCBFA400080B483B000AF78602D
:102070007B68013B202B6DD801A252F823F000BFF2
:102080000D214000352140004D214000112140002C
:102090005521400055214000552140005521400068
:1020A00045214000492140002D214000552140009C
:1020B00055214000152140002921400019214000F0
:1020C00039214000212140002521400031214000DC
:1020D000552140004121400055214000552140003C
:1020E0003D2140001D21400055214000512140006C
:1020F0005521400055214000552140000521400058
:1021000009214000022326E0032324E0002322E0EB
:10211000012320E004231EE005231CE006231AE02F
:10212000072318E0082316E0092314E00A2312E02D
:102130000B2310E00C230EE00D230CE00E230AE02D
:102140000F2308E0102306E0112304E0122302E02D
:10215000132300E0142318460C37BD465DF8047BBA
:10216000704700BF80B58AB000AF0346B9607A609F
:10217000FB7300237B62BB681B687B61FB7B103BAE
:10218000132B00F2DD8101A252F823F0412240001E
:102190005D224000F1214000F5244000412540002F
:1021A0005B23400041254000C12240004125400002
:1021B000A12340004D244000AB24400041254000B5
:1021C0004125400041254000412540004125400077
:1021D00041254000DD214000DD244000BB681B7923
:1021E000042B03D1854B98470346ABE10023A9E1BB
:1021F00044233B6282490520824B984709E0386AB4
:10220000814B98470346002219468048804B9847E7
:1022100078623B6A5A1E3A62002BF0DC08217D4846
:102220007D4B98477D4B984778627D4B9847024697
:102230007B6A13447B627B4B00221A607B6A81E1DC
:1022400007F1130319467148774B984778627B6A08
:10225000002B01D1FB7C75E17B6A73E14423FB61B8
:1022600072490520674B984709E0F869664B984723
:102270000346002219466548654B98477862FB691A
:102280005A1EFA61002BF0DC08216248624B984725
:102290005E48674B984702467B6A13447B625F4BFC
:1022A000984702467B6A13447B625D4B984702461F
:1022B0007B6A13447B625B4B00221A607B6A41E1BC
:1022C00078695C4B984703461A465B4905204D4B9D
:1022D00098477B69202B29D07B69212B26D07B69ED
:1022E000012B23D07B69042B20D07B69102B1DD0C0
:1022F0007B690F2B1AD07B69092B17D07B690A2BBE
:1023000014D07B69132B11D07B691A2B0ED07B69FB
:102310001C2B0BD07B69112B08D07B69122B05D0AD
:102320007B69162B02D07B69192B01D1002309E1AF
:102330007B69022B08D07B690E2B05D07B690B2BA8
:1023400002D07B69142B05D13C4B1B68002B01D0BC
:102350000023F7E06FF00A03F4E07869354B984703
:1023600003461A4636490520264B98477B69202BA1
:102370000FD07B69012B0CD07B69212B09D07B69A5
:10238000042B06D07B69022B07D12C4B1B68002B3A
:1023900003D02C4B98470346D4E06FF00A03D1E0FA
:1023A0007869244B984703461A4627490520154B60
:1023B00098477B69002B1EDD7869134B98470346CD
:1023C000132B18D87869104B9847034601221946F9
:1023D0000E480F4B9847786278690B4B9847034635
:1023E0001A46012393401A460E4B1B6813430D4AAD
:1023F00013607B6AA6E06FF00103A3E0F1144000D4
:102400003CBC410051FF4000692040009819002069
:10241000B5AE400000100E40E101400069174000D9
:1024200081164000E40E002009AA400068BC41006B
:1024300085AE40009DCF400094BC4100E80E0020D6
:10244000C0BC410011274000F4BC410078693F4BFB
:10245000984703461A463E4905203E4B98477B69FC
:10246000002B1FDD78693C4B98470346132B19D886
:102470007869394B98470346002219463748384B4C
:10248000984778627869344B984703461A46012387
:102490009340DB431A46334B1B681340314A1360A9
:1024A0007B6A4FE06FF001034CE0BB685B681A4643
:1024B0002D490520274B98477869274B98470346B5
:1024C0001946BB685B68294AA2FB03239B091A468D
:1024D0002248274B984778627B6A33E078691B4B28
:1024E000984703461A46234905201A4B98476FF030
:1024F000010327E04423BB611F490520154B984782
:1025000009E0B869144B984703460022194613485E
:10251000134B98477862BB695A1EBA61002BF0DCF6
:1025200008211648164B98470C48164B9847024608
:102530007B6A13447B620B4B00221A607B6A01E0CA
:102540006FF0010318462837BD4680BD9DCF40007F
:1025500024BD410051FF400069204000981900202F
:10256000B5AE4000E40E002050BD4100D34D6210D6
:1025700019AF400088BD4100C4BD410000100E40AD
:10258000E101400085AE400080B48DB000AFF8603E
:10259000B9607A603B6000233B6200237B6214E0F9
:1025A0007B6A9B00BA6813441B68002B01D001238F
:1025B0003B627B6A9B007A6813441B68002B01D046
:1025C00001233B627B6A01337B627B6A022BE7DD7E
:1025D0003B6A002B0FD100237B6208E07B6A9B00E3
:1025E0003A68134400221A607B6A01337B627B6A7B
:1025F0000B2BF3DD86E04FF4FA73FB610023BB6124
:1026000000237B6211E07A6ABB6913449B003A683D
:1026100013447A6A9200B9680A441268F96901FBA6
:1026200002F21A607B6A01337B627B6A022BEADD6D
:102630000023FB620123BB627B6804331B6883EACF
:10264000E372A2EBE3727B681B68002BB8BF5B42AE
:102650009A4201DD0123FB627B6808331B6883EA31
:10266000E372A2EBE372FB6A9B0079680B441B6880
:10267000002BB8BF5B429A4201DD0223FB62FB6A7A
:102680009B007A6813441B68002B02DA4FF0FF337B
:10269000BB620423FB61BB6A9B037B617B69FA69B4
:1026A00002FB03F37B61BB690333BB6100237B62E5
:1026B00025E07A6ABB6913449B003A6813447A6A3E
:1026C000920079680A441268F96901FB02F21A6003
:1026D000FA6A7B6A9A420FD17A6ABB6913449B00FB
:1026E0003A681344796ABA690A44920039680A441C
:1026F00011687A698A1A1A607B6A01337B627B6A85
:10270000022BD6DD3437BD465DF8047B70470000F0
:102710002DE9B0438AB004AF634B93F89030012B9E
:1027200004D162490320624B9847B6E06149032017
:102730005F4B98473A4607F10C0319465A485E4BDF
:10274000984702465D4B1A605D4B1B68002B0DD00D
:102750005A4B1B6803F00703072B07D1524B01228A
:1027600083F89020554B00221A6019E0544B1B68E7
:10277000002B0DD1514B1B6803F00303032B07D132
:10278000494B012283F890204C4B00221A6007E04D
:102790004C490120464B9847484B4FF0FF321A6096
:1027A000494B98473A4607F10C01484B3E48484C84
:1027B000A047464B1B6807EE903AF8EEE77A9FED8C
:1027C000457AC7EE876A444B16EE900A98478046D2
:1027D00089463E4B5B6807EE903AF8EEE77A9FED4C
:1027E0003D7AC7EE876A3C4B16EE900A984704463E
:1027F0000D46364B9B6807EE903AF8EEE77A9FED70
:10280000357AC7EE876A344B16EE900A984702462F
:102810000B46CDE90223CDE9004542464B462F4900
:102820000320234CA047294BDB6807EE903AF8EED3
:10283000E77A9FED287AC7EE876A274B16EE900A53
:10284000984780468946214B1B6907EE903AF8EE7F
:10285000E77A9FED207AC7EE876A1F4B16EE900A43
:10286000984704460D46194B5B6907EE903AF8EE1F
:10287000E77A9FED187AC7EE876A174B16EE900A33
:10288000984702460B46CDE90223CDE90045424672
:102890004B4613490320064CA047084B1B681846BB
:1028A0001837BD46BDE8B08398190020F0BD41003F
:1028B00051FF400018BE410049A64000F41100201D
:1028C000E80E002030BE410069174000F8110020DA
:1028D0008925400000008047FD38410044BE41008A
:1028E00074BE410080B483B000AF0346FB71094958
:1028F00097F907305B09FA7902F01F02012000FA0C
:1029000002F241F8232000BF0C37BD465DF8047B7E
:10291000704700BF00E100E080B483B000AF034621
:10292000FB71094997F907305B09FA7902F01F0238
:10293000012000FA02F2203341F8232000BF0C37B7
:10294000BD465DF8047B704700E100E080B483B0D1
:1029500000AF0346FB71094997F907305B09FA7923
:1029600002F01F02012000FA02F2603341F8232036
:1029700000BF0C37BD465DF8047B704700E100E006
:1029800080B483B000AF03463960FB7197F907301C
:10299000002B0BDA0D49FB7903F00F03043B3A6877
:1029A000D2B21201D2B20B441A7609E0084997F963
:1029B00007303A68D2B21201D2B20B4483F8002336
:1029C00000BF0C37BD465DF8047B704700ED00E0AA
:1029D00000E100E080B483B000AF78607B68072B33
:1029E00025D801A252F823F0092A40000F2A4000FE
:1029F000152A40001B2A40001F2A4000232A4000BD
:102A0000272A40002B2A40004FF4FA4310E04FF4ED
:102A100000430DE04FF400430AE0084B08E0084B88
:102A200006E0084B04E0002302E0002300E000235E
:102A300018460C37BD465DF8047B704700127A00DB
:102A40000024F40000366E0180B500AF0120044B75
:102A50009847024640F64E6303FB02F3184680BDDA
:102A6000D529400080B500AF024B98470346184671
:102A700080BD00BF492A400080B500AF024B984797
:102A80000346184680BD00BF492A400080B582B089
:102A900000AF78607868034B984700BF0837BD46A1
:102AA00080BD00BF5943400080B588B000AF78605A
:102AB00039603B681B68BB603B685B68FB603B68D8
:102AC0009B683B613B68DB687B610023BB617B6883
:102AD000694A934215D16948694B98470121674873
:102AE000684B9847684B9847024607F10803194618
:102AF0007868664B98477868654B98477868654B67
:102B000098477B68644A934215D164485C4B984768
:102B1000012162485B4B98475B4B9847024607F19F
:102B2000080319467868594B98477868584B984776
:102B30007868584B98477B68594A934215D1594851
:102B40004F4B9847012157484E4B98474E4B98475B
:102B5000024607F10803194678684C4B9847786895
:102B60004B4B984778684B4B98477B684E4A93424B
:102B700015D14E48424B984701214C48414B98474C
:102B8000414B9847024607F10803194678683F4BC6
:102B9000984778683E4B984778683E4B98477B68E3
:102BA000434A934215D14348354B98470121414848
:102BB000344B9847344B9847024607F108031946AF
:102BC0007868324B98477868314B98477868314B32
:102BD00098477B68384A934215D13848284B984724
:102BE00001213648274B9847274B9847024607F163
:102BF000080319467868254B98477868244B98470E
:102C00007868244B98477B682D4A934215D12D480C
:102C10001B4B984701212B481A4B98471A4B984752
:102C2000024607F1080319467868184B98477868F8
:102C3000174B98477868174B98477B68224A93420E
:102C400015D122480E4B9847012120480D4B98473B
:102C50000D4B9847024607F10803194678680B4B5D
:102C6000984778680A4B984778680A4B984700BF9E
:102C70002037BD4680BD00BF00C2004000C00040FC
:102C8000A136400009384000792A4000D93340007D
:102C90005D344000913440000002024000000240D8
:102CA000004202400040024000820140008001409A
:102CB00000C2014000C0014000820040008000408E
:102CC0000002044000000440004203400040034072
:102CD00080B584B000AF786039600023FB607B680A
:102CE000494A93420DD100BF07F10C031946786899
:102CF000464B98470346002BF6D1FB68DAB23B6897
:102D00001A707B68424A93420DD100BF07F10C0351
:102D1000194678683D4B98470346002BF6D1FB686F
:102D2000DAB23B681A707B683A4A93420DD100BF11
:102D300007F10C0319467868344B98470346002B7B
:102D4000F6D1FB68DAB23B681A707B68324A93426C
:102D50000DD100BF07F10C03194678682B4B98473B
:102D60000346002BF6D1FB68DAB23B681A707B6829
:102D70002A4A93420DD100BF07F10C031946786827
:102D8000224B98470346002BF6D1FB68DAB23B682A
:102D90001A707B68224A93420DD100BF07F10C03E1
:102DA00019467868194B98470346002BF6D1FB6803
:102DB000DAB23B681A707B681A4A93420DD100BFA1
:102DC00007F10C0319467868104B98470346002B0F
:102DD000F6D1FB68DAB23B681A707B68124A9342FC
:102DE0000DD100BF07F10C0319467868074B9847CF
:102DF0000346002BF6D1FB68DAB23B681A7000BFBD
:102E00001037BD4680BD00BF00C2004063354000A2
:102E100000020240004202400082014000C2014024
:102E200000820040000204400042034080B483B0AE
:102E300000AF78607B681B685A1C7B681A6000BF13
:102E40000C37BD465DF8047B704780B483B000AF9B
:102E500078607B681A897B68DB889A4207D17B6837
:102E6000DA7A7B689B7A9A4201D0012300E0002342
:102E700018460C37BD465DF8047B704780B400AF40
:102E8000034B01221A6000BFBD465DF8047B70470A
:102E9000980D002090B585B002AF78600C200F4BE4
:102EA0009847702308224FF020510D480D4CA04741
:102EB0007B680093702308220C2109480A4CA04724
:102EC00000220C210648094B984708210448084B6A
:102ED000984700BF0C37BD4690BD00BF5943400026
:102EE00000100E4091034000CD06400065074000F1
:102EF000BD04400090B589B000AF184B07F1100435
:102F00000FCB84E80F000720154B984707F11003FB
:102F100019461448144B9847144B3C460FCB84E891
:102F20000F0008200E4B98473B46194610480E4BA1
:102F300098474FF400720F490F48104B98470121F2
:102F40000B480F4B9847002108200E4B984708204C
:102F50000D4B984700BF2437BD4690BD9CBE410035
:102F60008D2A400000420340A92A4000ACBE410027
:102F700000C2004010120020D01E00209DFF400023
:102F8000C534400081294000E528400080B582B06A
:102F900000AF0E480E4B984778607B6803F0010342
:102FA000002B0FD0FB1C194608480A4B98470A48CB
:102FB0000A4B98470346002B04D1FB781946064874
:102FC000074B984700BF0837BD4680BD00C2004090
:102FD000E1344000D12C4000D01E00204B2E400098
:102FE000F5FF400080B500AF0A480B4B984703211E
:102FF00008480A4B98470A4B98470246094B1A6003
:10300000084B094A5A6007490848094B984700BFCE
:1030100080BD00BF00C00140A1364000093840001B
:10302000792A4000A41E0020801A060000C6014034
:10303000ED09400080B588B000AF3B600346FB71EE
:103040000B46BB711346BB80FB79002B02D10E4BA4
:103050001B78FB71FB793B77BB793B7301233B61A9
:103060003B687B61BB88BB6107F10C0319460748CD
:10307000074B98470346002B01D1002300E00823AB
:1030800018462037BD4680BD1801002000C601400B
:103090001D0B400080B588B000AF3B600346FB715C
:1030A0000B46BB711346BB80FB79002B02D10C4B46
:1030B0001B78FB71FB793B77BB793B7301233B6149
:1030C0003B687B61BB88BB6107F10C03194605486F
:1030D000054B9847034618462037BD4680BD00BFC4
:1030E0001801002000C60140290C400080B400AF48
:1030F00000231846BD465DF8047B704780B500AFDD
:10310000014B984700BF80BDE52F400090B589B0C6
:1031100002AF7860204B9847786117201F4B984783
:1031200017201F4B984707F1080107F10C027B6934
:1031300000930B46796978681A4CA047BB6843F442
:1031400080431A4600211848184B9847FB687A6953
:10315000B2FBF3F27B68B2FBF3F33B613A69002107
:103160001148134B984700210F48124B98471022E3
:1031700000210D48104B984700210B480F4B9847F2
:10318000002117200E4B984717200E4B984700BF81
:103190001C37BD4690BD00BF652A4000192940007C
:1031A0004D2940001F09400000000140E907400090
:1031B00089084000FB084000AF0840002308400099
:1031C00081294000E528400090B583B000AF002180
:1031D0000F48104B9847786000210D480E4B9847D8
:1031E00038600E4B1B684CF2503202FB03F27B68D6
:1031F0004CF2503101FB03F13B68B1FBF3F3134494
:103200004FF00004184621460C37BD4690BD00BF64
:1032100000000140450840006708400010140020ED
:1032200080B582B000AF00210C480D4B9847786004
:1032300000210A480B4B984702467B6813407B608D
:103240007B6803F01003002B04D0074B1B6801338D
:10325000054A136000BF0837BD4680BD000001402D
:10326000FB084000D70840001014002080B500AFD4
:10327000044B1B680133034A13600348034B984710
:1032800000BF80BD14140020B01E00202D2E400071
:1032900090B585B000AFF8607A603B600B46FB727A
:1032A000064B18783B689AB2F97A7B68044CA047C1
:1032B000034618461437BD4690BD00BF18010020D4
:1032C0003530400090B585B000AFF8607A603B6063
:1032D0000B46FB72064B18783B689AB2F97A7B680A
:1032E000044CA047034618461437BD4690BD00BFA6
:1032F000180100209530400080B489B000AFF8601C
:10330000B9607A60BB681A017B689A4202D81023C0
:10331000FB6101E00823FB617B68DA00FB69B968A7
:1033200001FB03F35B081A44FB69B96801FB03F373
:10333000B2FBF3F3BB61BB69DB087B61BB6903F0E4
:1033400007033B617B69002B03D07B69B3F5803FAA
:1033500001D301230FE0FB69082B05D1FB685B68F3
:1033600043F40022FB685A603B691A047B691A43E4
:10337000FB681A62002318462437BD465DF8047BBB
:103380007047000080B582B000AF786078680D4B60
:1033900098477B6800225A607B6800225A627B68EB
:1033A00000229A627868084B98477868074B9847DC
:1033B0007868074B98477868064B984700BF0837EE
:1033C000BD4680BD9935400077344000AB344000A5
:1033D000F93440001535400080B584B000AFF86086
:1033E000B9607A60F8681A4B98471A4B00221A6045
:1033F000BB68002B09D0BB681B687A681946F8685F
:10340000154B98470346002B01D001231BE0BB68F6
:103410005A68BB689B681A43BB681B691A43BB6840
:10342000DB681A430B4B1B6813430A4A1360094BB2
:103430001B68084A1360FB685A68064B1B681A43EE
:10344000FB685A60002318461037BD4680BD00BF98
:103450008533400018140020F932400080B483B056
:1034600000AF78607B6840221A6000BF0C37BD4611
:103470005DF8047B704780B483B000AF78607B68F0
:1034800088221A6000BF0C37BD465DF8047B704788
:1034900080B483B000AF78607B6810221A6000BFF0
:1034A0000C37BD465DF8047B704780B483B000AF35
:1034B00078607B6824221A6000BF0C37BD465DF837
:1034C000047B704780B483B000AF786039607B685C
:1034D0003A689A6000BF0C37BD465DF8047B7047C0
:1034E00080B483B000AF78607B685B6918460C37A6
:1034F000BD465DF8047B704780B483B000AF786050
:103500007B684FF480721A6000BF0C37BD465DF8CF
:10351000047B704780B483B000AF78607B684FF461
:1035200000221A6000BF0C37BD465DF8047B70476F
:1035300080B483B000AF786039607B685B6903F06A
:103540000203002B01D1012305E03B68C3F308020D
:103550007B68DA61002318460C37BD465DF8047BB2
:10356000704780B483B000AF786039607B685B6976
:1035700003F00103002B01D1012306E07B689B6966
:10358000C3F308023B681A60002318460C37BD4697
:103590005DF8047B7047000080B483B000AF7860B2
:1035A0007B68044AC3F8E42000BF0C37BD465DF8D1
:1035B000047B70470041535580B483B000AFEFF3F4
:1035C00010837B607B68002B0CBF01230023DBB2E0
:1035D0003B6072B6BFF35F8F044B00221A703B68EA
:1035E00018460C37BD465DF8047B70471901002072
:1035F00080B483B000AF78607B68002B14BF0123D8
:103600000023DBB218460C37BD465DF8047B7047DB
:1036100080B582B000AF78607868074B9847034662
:10362000002B05D0054B01221A70BFF35F8F62B6E5
:1036300000BF0837BD4680BDF135400019010020AC
:1036400080B582B000AF78607868034B984700BFC0
:103650000837BD4680BD00BF5943400080B584B0E7
:1036600000AF0346FB71FB790A4AD35CFF2B00D104
:10367000FEE7094B9847F860FB79064AD25C0132B5
:10368000D1B2044AD154F868044B984700BF1037B0
:10369000BD4680BD68180020B93540001136400095
:1036A00080B582B000AF786000204A4B98477B68B5
:1036B000494A93420DD10720484B98470720484B71
:1036C000984700210720474B98470720464B9847CB
:1036D0007CE07B68454A93420DD116203F4B9847CA
:1036E00007203F4B9847002107203E4B9847072073
:1036F0003D4B98476AE07B683D4A93420DD11520C7
:10370000364B98470720364B984700210720354B0A
:1037100098470720344B984758E07B68354A9342D6
:103720000DD114202D4B984707202D4B9847002191
:1037300007202C4B984707202B4B984746E07B6887
:103740002D4A93420DD11320244B98470620244B39
:10375000984700210620234B98470620224B984784
:1037600034E07B68254A93420DD10E201B4B9847CD
:1037700006201B4B9847002106201A4B984706202D
:10378000194B984722E07B681D4A93420DD10920CE
:10379000124B98470620124B984700210620114BE8
:1037A00098470620104B984710E07B68154A9342D3
:1037B0000CD10820094B98470620094B9847002157
:1037C0000620084B98470620074B984700BF08374C
:1037D000BD4680BD5D36400000400340413640009C
:1037E0005D444000DD43400035444000000004409B
:1037F0000080004000C001400080014000400240C5
:103800000000024000C0004080B483B000AF786088
:103810000B46FB70FA787B681A6000BF0C37BD4618
:103820005DF8047B7047000080B582B000AF78601F
:103830007B68072B31D801A252F823F09938400059
:103840005D384000653840006D38400075384000F4
:103850007D384000853840008F3840000020114BF3
:1038600098471AE001200F4B984716E000200E4BB6
:10387000984712E010200C4B98470EE020200A4B8E
:1038800098470AE03E210020084B984705E03E217A
:103890000120064B984700E000BF00BF0837BD4637
:1038A00080BD00BF81414000ED4140005D424000CD
:1038B00080B582B000AF78607B68072B26D801A264
:1038C00052F823F0E5384000E9384000E93840007C
:1038D000FB384000FB384000FB384000FB3840001C
:1038E000FB384000012312E00B4B98470346002BA6
:1038F00014BF01230023DBB209E0084B98470346BD
:10390000002B14BF01230023DBB200E00023184684
:103910000837BD4680BD00BFB9414000D5424000D8
:1039200080B483B000AF78607B68072B25D801A2F4
:1039300052F823F0553940005B39400061394000AE
:10394000673940006B3940006F39400073394000DF
:10395000773940004FF4FA4310E04FF400430DE094
:103960004FF400430AE0084B08E0084B06E0084B20
:1039700004E0002302E0002300E0002318460C3797
:10398000BD465DF8047B704700127A000024F40005
:1039900000366E0180B582B000AF0346FB7100BFF8
:1039A000FB791846054B9847034683F00103DBB2C9
:1039B000002BF5D100BF0837BD4680BDB1384000AF
:1039C00080B586B000AFF8607A603B600B46FB7252
:1039D000FB7A18460D4B984702467B68B2FBF3F31F
:1039E0007B617B693A6802FB03F37B613B68013BC7
:1039F0001A04074B13407A68D2B2134343F47C5243
:103A0000FB681A6000BF1837BD4680BD21394000F1
:103A10000000FF1F80B582B000AF786039603B685E
:103A2000002B06D1084B9847084A7B681B689362B5
:103A300005E0074B9847054A7B681B68D36200BFC7
:103A40000837BD4680BD00BFF142400000040E4073
:103A50002543400080B582B000AF78607B68002BC2
:103A600003D1084B9847034607E07B68012B03D13D
:103A7000054B9847034600E0002318460837BD462B
:103A800080BD00BF094340003D43400080B582B087
:103A900000AF0346FB71FB790033012B08D8FB799B
:103AA0001846064B9847FB791846054B984700E0A7
:103AB00000BF00BF0837BD4680BD00BF29384000A9
:103AC0009539400080B582B000AF786000BF78685B
:103AD000044B98470346002BF9D0002318460837BB
:103AE000BD4680BD553A400080B500AF0120044B73
:103AF0009847024640F64E6303FB02F3184680BD2A
:103B00002139400080B500AF024B98470346184664
:103B100080BD00BFE93A400090B5A5B002AF204893
:103B2000204B98470120204B9847384640F64E637B
:103B3000012201211D4CA0473B46002118461C4B89
:103B4000984700201B4B984700201B4B98471B4B66
:103B500098471B4B984703461846124B9847194BFA
:103B60001B68194A934216D8164B1B68174A934292
:103B700011D93A1D2023009313460F220E21144819
:103B8000144CA0477B6C9BB2C7F88430D7F88410E4
:103B90001148124B984700BF8C37BD4690BD00BFFF
:103BA000000E2707414740008D3A4000C1394000D0
:103BB000153A4000C53A4000FD4040001D46400017
:103BC000053B40001C010020C0EF0B083F2C4206C3
:103BD000000A0E400B00002010140E4085444000E7
:103BE00080B582B000AF78607868034B984700BF1B
:103BF0000837BD4680BD00BF5943400080B500AFC7
:103C00000B20034B98470C20014B984700BF80BD09
:103C1000E13B400080B489B000AF78607B68FB6115
:103C2000FB69BB61BB695A09FB697B617B6903F076
:103C30001F03012101FA03F33A61FB603B69BB609A
:103C4000BB6803F5001303F207735B021A46FB68B7
:103C5000536000BF2437BD465DF8047B704780B4D5
:103C600087B000AF786039607B687B613B683B61FF
:103C70007B69FB60FB6803F5001303F207735B02CB
:103C80001A463B69536000BF1C37BD465DF8047B94
:103C9000704780B48BB000AFF860B9607A60FB68A1
:103CA0007B62BB683B627B68FB617B6ABB61BB6913
:103CB00003F5001303F207735B027B61FB6903F0FA
:103CC0000803002B03D07B693A6A5A6602E07B69DD
:103CD0003A6A1A66FB6903F01003002B04D07B6973
:103CE0003A6AC3F8942003E07B693A6AC3F89020EB
:103CF000FB6903F02003002B03D07B693A6A1A6545
:103D000002E07B693A6A5A65FB6903F0C003002B45
:103D100003D07B693A6A1A6202E07B693A6A5A62A6
:103D2000FB6903F08003002B04D07B693A6AC3F877
:103D3000842003E07B693A6AC3F88020FB6903F0C2
:103D40000103002B06D07B691A6F3B6A1A437B691B
:103D50001A6706E07B691A6F3B6ADB431A407B698E
:103D60001A67FB6903F00203002B06D07B695A6FC8
:103D70003B6A1A437B695A6706E07B695A6F3B6A64
:103D8000DB431A407B695A6700BF2C37BD465DF89C
:103D9000047B704780B48DB000AF786039607B6879
:103DA000FB623B68BB62FB6A7B627B6A5A09FB6A07
:103DB0003B623B6A03F01F03012101FA03F3FA613E
:103DC000BB61BB6A7B61FB693B613B6903F5001327
:103DD00003F207735B02FB607B6903F00803002BAF
:103DE00003D0FB68BA695A6602E0FB68BA691A66D2
:103DF0007B6903F01003002B04D0FB68BA69C3F899
:103E0000942003E0FB68BA69C3F890207B6903F053
:103E10002003002B03D0FB68BA691A6502E0FB6837
:103E2000BA695A657B6903F0C003002B03D0FB68B5
:103E3000BA691A6202E0FB68BA695A627B6903F0E8
:103E40008003002B04D0FB68BA69C3F8842003E028
:103E5000FB68BA69C3F880207B6903F00103002B7B
:103E600006D0FB681A6FBB691A43FB681A6706E045
:103E7000FB681A6FBB69DB431A40FB681A677B69F2
:103E800003F00203002B06D0FB685A6FBB691A438C
:103E9000FB685A6706E0FB685A6FBB69DB431A4050
:103EA000FB685A6700BF3437BD465DF8047B704736
:103EB00080B48DB000AF78600B46FB707B68FB620E
:103EC000FB7887F82B30FB6A7B627B6A3B623B6A3C
:103ED0005B09FB61FB6903F5001303F207735B02E7
:103EE000BB6197F82B30012B09D1FB6A7B617B69A1
:103EF00003F01F0301229A40BB691A610CE097F896
:103F00002B30002B08D1FB6A3B613B6903F01F0398
:103F100001229A40BB695A61FB6AFB60FB6803F0AF
:103F20001F0301229A40BB69C3F8A02000BF3437A9
:103F3000BD465DF8047B704780B48BB000AF7860FD
:103F40000B46FB707B687B62FB7887F823307B6ACB
:103F5000FB61FB69BB61BB695B097B617B6903F545
:103F6000001303F207735B023B6197F82330002BC9
:103F700009D07B6AFB60FB6803F01F0301229A40B3
:103F80003B691A6308E07B6ABB60BB6803F01F03F0
:103F900001229A403B695A6300BF2C37BD465DF849
:103FA000047B704780B500AF4C4B4FF400425A6021
:103FB0004B4B9847012106204A4B98470121062088
:103FC000494B984700210220464B98470821022080
:103FD000464B984701210120434B9847012101207E
:103FE000404B984701212D203F4B984701212D2020
:103FF0003C4B984701212F203B4B984701212F2014
:10400000384B984701224FF4C0610020384B984745
:104010004FF4C0610020374B984701224FF0C05148
:104020000020334B98474FF0C0510020314B984748
:1040300000210C202D4B98470C202F4B9847002136
:104040000D202A4B98470D202B4B984700210E201E
:10405000264B98470E20284B984700210B20234BD6
:1040600098470B20244B9847012105201F4B984768
:104070000520214B9847002128201C4B98472820D9
:104080001D4B984700212920184B984729201A4B8F
:10409000984700210920154B98470920164B98474F
:1040A00000210A20114B98470A20134B9847002102
:1040B00020200E4B984720200F4B984700211920B5
:1040C0000A4B984719200C4B984700211A20074BA0
:1040D00098471A20084B984700BF80BD50140E40E7
:1040E000FD3B4000B13E4000393F4000953D40005F
:1040F000933C40005F3C4000153C400080B485B0DC
:1041000000AF78601D491D4B1B6B23F070027B686C
:1041100013430B634FF40063FB6007E0FB68002B65
:1041200001D1012323E0FB68013BFB60134B9B6E35
:1041300003F00803002BF1D0104A104B1B6B23F047
:10414000030343F0020313634FF40063FB6007E0D3
:10415000FB68002B01D1012309E0FB68013BFB60F8
:10416000064B9B6E03F00803002BF1D0002318468A
:104170001437BD465DF8047B704700BF00040E4055
:1041800080B483B000AF78607B68012B07D1084A08
:10419000074B9B6843F0254343F480139360044B23
:1041A000044A1A6000BF0C37BD465DF8047B7047B7
:1041B00010140E40080000A580B400AF094B5B69E5
:1041C00003F08003002B07D0074B9B6E03F08003A6
:1041D000002B01D0012300E000231846BD465DF806
:1041E000047B704710140E4000040E4080B483B06E
:1041F00000AF7860184A184B1B6A43F45C1343F015
:104200000803136200BF144B9B6E03F40033002BB2
:10421000F9D01149104B1B6A23F45C1323F070038F
:104220007A68134343F45C130B6200BF0A4B9B6E26
:1042300003F40033002BF9D0074A074B1B6A23F025
:104240009B7323F4803343F45C13136200BF0C3779
:10425000BD465DF8047B704700040E4080B483B017
:1042600000AF786039607B68002B08D01649164B88
:104270001B6A164A1A40164B13430B621EE0124982
:10428000114B1B6A23F45C1323F003033A681202F8
:1042900092B2134343F45C1343F001030B6200BF7B
:1042A000094B9B6E03F00103002BF9D0064A064B25
:1042B0001B6A43F09B7343F48033136200BF0C37D7
:1042C000BD465DF8047B704700040E40FCFFC8FE4D
:1042D0000200370180B400AF044B9B6E03F48033BF
:1042E0001846BD465DF8047B704700BF00040E40D1
:1042F00080B400AF034B00229A6200BFBD465DF858
:10430000047B704700040E4080B400AF044B9B6EEA
:1043100003F002031846BD465DF8047B704700BFFA
:1043200000040E4080B400AF034B0022DA6200BFED
:10433000BD465DF8047B704700040E4080B400AFBA
:10434000044B9B6E03F004031846BD465DF8047BE6
:10435000704700BF00040E4080B483B000AF7860A7
:104360007B68322B01D901232FE07B681F2B13D8E8
:10437000194B9A6901217B6801FA03F31A40012164
:104380007B6801FA03F39A421ED0134A01217B682D
:1043900001FA03F3136117E07B68203B7B600E4B4F
:1043A000D3F8082101217B6801FA03F31A400121A7
:1043B0007B6801FA03F39A4206D0074A01217B6821
:1043C00001FA03F3C2F80031002318460C37BD464A
:1043D0005DF8047B704700BF00040E4080B485B0D8
:1043E00000AF7860396012493B6843F004027B6893
:1043F000103341F823204FF40063FB6007E0FB68B3
:10440000002B01D101230DE0FB68013BFB60084B51
:104410009A6E4FF480717B6801FA03F31340002B0E
:10442000EDD0002318461437BD465DF8047B704775
:1044300000040E4080B483B000AF7860064A4FF4A9
:1044400080717B6801FA03F3136000BF0C37BD462F
:104450005DF8047B704700BF00040E4080B483B059
:1044600000AF7860064A4FF480717B6801FA03F36D
:10447000536000BF0C37BD465DF8047B704700BF3A
:1044800000040E4080B485B000AF786039607B686E
:10449000DB6923F4F053FB603B685B0203F4F052EA
:1044A000FB68134343F0B44343F480737A68D361E9
:1044B00000BF1437BD465DF8047B704780B483B0FD
:1044C00000AFEFF310837B607B68002B0CBF0123F0
:1044D0000023DBB23B6072B6BFF35F8F044B002258
:1044E0001A703B6818460C37BD465DF8047B704770
:1044F0001901002080B483B000AF78607B68002B86
:1045000014BF01230023DBB218460C37BD465DF80B
:10451000047B704780B582B000AF78607868074B45
:1045200098470346002B05D0054B01221A70BFF3B4
:104530005F8F62B600BF0837BD4680BDF5444000BE
:104540001901002080B584B000AF254BFB60254BDE
:10455000BB60FA68BB689A420CD007E0BB681A1DC2
:10456000BA60FA68111DF96012681A60BB681E4AC9
:104570009342F3D31D4BBB6004E0BB681A1DBA60C5
:1045800000221A60BB681A4A9342F6D3194BFB60AB
:10459000194AFB6823F07F039360184B98477860B3
:1045A000174A174B1B6843F470031360BFF34F8F18
:1045B000BFF36F8F7868134B9847FB68B3F1005FC8
:1045C00009D3FB68104A934205D80B4A0A4B9B68F3
:1045D00043F0005393600D4B98470D4B9847FEE70F
:1045E000B4DA410000000020080D0020080D002072
:1045F000AC1F00200000400000ED00E0BD44400082
:1046000088ED00E015454000FF7F02208541410014
:104610007D11400080B400AFFEE7000080B400AF21
:10462000414B1B6B03F00303012B14D0012B02D36E
:10463000022B38D059E03D4B5B6903F08003002B1F
:1046400004D03B4B4FF400421A604EE0384B4FF41D
:10465000FA421A6049E0344B1B6A03F08073002B66
:1046600003D0334B334A1A603FE0314B324A1A6071
:104670002D4B1B6A03F07003102B04D0202B08D0A5
:10468000002B0ED00EE02A4B1B685B00284A1360FB
:1046900008E0274B1A6813465B001344244A136052
:1046A00000E000BF21E0214B5B6903F08003002B99
:1046B00004D01F4B4FF400421A6003E01C4B4FF430
:1046C000FA421A60184B1B6B03F00303022B0BD149
:1046D000154B9B6A1B0CC3F30C030133144A12687D
:1046E00002FB03F3124A136000BF0F4B1B6B03F076
:1046F0007003702B08D10E4B1B68104AA2FB0323DA
:104700005B080B4A13600AE0074B1B6B1B0903F0A5
:104710000703074A126822FA03F3054A136000BF31
:10472000BD465DF8047B704700040E4010140E4037
:104730001C010020001BB70000127A00ABAAAAAA35
:1047400080B483B000AF78607B68194A934204D884
:10475000184B4FF080621A6023E07B68164A934240
:1047600003D8144B154A1A601BE07B68144A934225
:1047700003D8104B134A1A6013E07B68124A934225
:1047800003D80C4B114A1A600BE07B68104A934225
:1047900004D8084B4FF004221A6002E0054B0D4A82
:1047A0001A6000BF0C37BD465DF8047B704700BF40
:1047B000FF2C3101000A0E40FF5962020001000483
:1047C000FF86930300020004FFB3C4040003000447
:1047D000FFE0F5050005000480B485B000AF786007
:1047E000104BFB60104B1B68002B02D10E4B0F4A85
:1047F0001A600D4B1B68BB60BA687B681A44FB6883
:104800009A4202DD4FF0FF3306E0074B1A687B68DF
:104810001344054A1360BB6818461437BD465DF85B
:10482000047B7047FC7F02201C140020B04F002046
:1048300080B483B000AF78600B46FB701346BB704A
:10484000FB78013B032B6FD801A252F823F000BF85
:104850006148400093484000F7484000C548400088
:104860007B682322C3F88820BA787B68C3F8842049
:104870007B68012283F88C207B68012283F87D22EB
:104880007B68012283F881227B68012283F88522DC
:1048900056E07B682422C3F88820BA787B68C3F886
:1048A00084207B68012283F88C207B68012283F8B6
:1048B0007D227B68012283F881227B68012283F8B4
:1048C00085223DE07B682022C3F88820BA787B6887
:1048D000C3F884207B68012283F88C207B68012246
:1048E00083F87D227B68012283F881227B68012284
:1048F00083F8852224E07B682522C3F88820BA78D3
:104900007B68C3F884207B68012283F88C207B6855
:10491000012283F87D227B68FF2283F881227B6855
:10492000FF2283F885220BE07B680022C3F88820F1
:104930007B680022C3F884207B68002283F88C20E7
:1049400000BF0C37BD465DF8047B704790B589B059
:1049500002AF78607B685033242200211846914BC7
:1049600098477B684D330322002118468D4B9847AA
:104970007B680022DA677B68012283F880207B68ED
:10498000002283F881207B68D3F88430DAB207F103
:104990000C03019301230093002300217868824CCB
:1049A000A04738613B69002B01D03B69F5E03B7BB8
:1049B000482B02D04FF0FF33EFE07B68D3F888300C
:1049C000212B06D17B68794A5A677B68784A9A67B7
:1049D0003EE07B68D3F88830222B06D17B68754A8D
:1049E0005A677B68744A9A6732E07B68D3F88830EC
:1049F000202B06D17B68714A5A677B68704A9A6798
:104A000026E07B68D3F88830232B06D17B686D4A7B
:104A10005A677B686C4A9A671AE07B68D3F88830DB
:104A2000242B06D17B68694A5A677B68684A9A6773
:104A30000EE07B68D3F88830252B06D17B68654A69
:104A40005A677B68644A9A6702E04FF0FF33A4E03C
:104A50007B68D3F88830252B10D17B68312283F80E
:104A600082207B68802283F84D207B68802283F837
:104A70004E207B68802283F84F2057E07B68D3F874
:104A80008830232B08D17B68312283F88220602371
:104A9000FB751F23BB7515E07B68D3F88830242B8A
:104AA00008D17B68312283F882206023FB751F23A5
:104AB000BB7507E07B680A2283F882201023FB7510
:104AC0000F23BB757B68D3F88430DAB2F97D0323FA
:104AD00000930B4600217868404CA04738613B6941
:104AE000002B01D03B6958E07B68D3F88430DAB200
:104AF0007B6893F882301946BB7D00930B460121F9
:104B00007868374CA04738613B69002B01D03B697E
:104B100043E07B684D3303223B217868314CA0474A
:104B200038613B69002B01D03B6936E07B68D3F8E4
:104B30008830242B10D17B68D3F88430DAB220235C
:104B40000093302301217868254CA04738613B69E8
:104B5000002B01D03B6920E07B68D3F88430DAB2C7
:104B60007B6893F882301946002300930B4601219D
:104B700078681B4CA04738613B69002B01D03B692A
:104B80000BE07B68012283F881207B68022283F896
:104B90008C207868144B9847034618461C37BD464E
:104BA00090BD00BF3144410061584000C4BE410087
:104BB000BCBE4100D4BE4100CCBE4100E4BE4100B9
:104BC000DCBE4100F4BE4100ECBE410004BF410028
:104BD000FCBE410014BF41000CBF4100BD57400066
:104BE000B9594000A1CA4000DD50400090B58FB0D7
:104BF00002AF78607B68D3F88430FB777B684D33F5
:104C0000BB6107F10C03012240F285117868A54CC5
:104C1000A047F862FB6A002B01D0FB6A56E2002233
:104C200040F285117868A04B9847F862FB6A002B28
:104C300001D0FB6A4AE207F10C030133012240F282
:104C400089117868974CA047F862FB6A002B01D065
:104C5000FB6A3BE2002240F289117868924B984748
:104C6000F862FB6A002B01D0FB6A2FE207F10B030D
:104C700001224FF4C07178688A4CA047F862FB6A41
:104C8000002B01D0FB6A21E200224FF4C07178684A
:104C9000854B9847F862FB6A002B01D0FB6A15E24E
:104CA0007B68D3F88830232B03D1312387F82B304E
:104CB00014E07B68D3F88830242B03D1312387F8A4
:104CC0002B300BE07B68D3F88830252B03D13123C0
:104CD00087F82B3002E00A2387F82B3097F82B1047
:104CE000FA7F002300930B46002178686F4CA047A1
:104CF000F862FB6A002B40F0B4817B68D3F88830FF
:104D0000232B11D07B68D3F88830242B0CD0FA7F6A
:104D1000402300930C2300217868644CA047F8627C
:104D2000FB6A002B40F09F817B68D3F88830232BEF
:104D30000BD197F82B10FA7F102300930B4600211C
:104D400078685A4CA047F8622CE07B68D3F888302A
:104D5000242B0BD197F82B10FA7F102300930B46CE
:104D600000217868514CA047F8621BE07B68D3F8BB
:104D70008830252B0BD197F82B10FA7F1023009346
:104D80000B4600217868494CA047F8620AE097F882
:104D90002B10FA7F082300930B4600217868434CC0
:104DA000A047F862FB6A002B40F05F810A2387F876
:104DB0002A3057E043F698203D4B98477B68D3F85C
:104DC0008830232B0CD1FA7F07F1100301930123C4
:104DD0000093102300217868364CA047F8622FE03A
:104DE0007B68D3F88830242B0CD1FA7F07F11003AD
:104DF0000193012300931023002178682D4CA047D4
:104E0000F8621DE07B68D3F88830252B0CD1FA7F3F
:104E100007F1100301930123009310230021786808
:104E2000244CA047F8620BE0FA7F07F110030193CE
:104E3000012300930223002178681E4CA047F862EA
:104E4000FB6A002B40F013813B7C03F00103002B35
:104E500005D197F82A30013B87F82A3002E0002379
:104E600087F82A3097F82A30002BA3D13B7C03F037
:104E70000103002B03D14FF0FF33FB62FCE07B68A2
:104E8000D3F88830232B17D1FA7F07F11003019351
:104E900006230093112300217868064CA047F8628E
:104EA0003AE000BFA1CA4000D5C94000B95940004E
:104EB000D9154000615840007B68D3F88830242B16
:104EC0000CD1FA7F07F110030193062300931123FD
:104ED000002178687F4CA047F8621DE07B68D3F81A
:104EE0008830252B0CD1FA7F07F11003019306239C
:104EF0000093112300217868764CA047F8620BE0FC
:104F0000FA7F07F110030193062300930323002186
:104F10007868704CA047F862FB6A002B40F0A980CB
:104F20007B7C1B021AB23B7C1BB213433B85FB7C90
:104F30001B021AB2BB7C1BB21343FB847B7D1B029A
:104F40001AB23B7D1BB21343BB847B68D3F8883015
:104F5000232B02D107233B6201E008233B62B7F910
:104F60002830BA691278803202FB03F23B6A42FAB7
:104F700003F33B85B7F92630BA69013212788032E3
:104F800002FB03F23B6A42FA03F3FB84B7F92430D5
:104F9000BA6902321278803202FB03F23B6A42FAAB
:104FA00003F3BB847B68D3F88830202B1FD1FA7FB2
:104FB00007F10A030193012300930A230021786873
:104FC000444CA047F862FB6A002B54D1BB7A03F033
:104FD0001003002B0BD1B7F928309B003B85B7F9A4
:104FE00026309B00FB84B7F924309B00BB844FF034
:104FF000FF33FB627B685B6FB3F90030B7F92820A1
:105000009A4239DC7B689B6FB3F90030B7F92820EE
:105010009A4231DB7B685B6F0233B3F90030B7F93A
:1050200026209A4228DC7B689B6F0233B3F900305C
:10503000B7F926209A421FDB7B685B6F0433B3F914
:105040000030B7F924209A4216DC7B689B6F04334A
:10505000B3F90030B7F924209A420DDB0023FB623C
:105060000AE000BF08E000BF06E000BF04E000BFA8
:1050700002E000BF00E000BF7B68D3F88830232B3C
:1050800015D07B68D3F88830242B10D07B68D3F8F8
:105090008830252B0BD0FA7F002300930C230021AE
:1050A00078680D4CA0470246FB6A1343FB6297F8F1
:1050B0002B10FA7F002300930B4600217868064CE2
:1050C000A0470246FB6A1343FB62FB6A184634376B
:1050D000BD4690BD61584000B959400080B584B0CC
:1050E00000AF78607B6893F88130002B01D10023FA
:1050F0001DE000217868104B9847F860012178681E
:105100000D4B98470246FB681343FB60FB68002B7E
:1051100001D0FB680BE07868084B98470246FB68B3
:105120001343FB607B68002283F88120FB681846EC
:105130001037BD4680BD00BF3D5A4000A15A400017
:1051400090B587B002AF78607B6893F88130002B10
:1051500001D00023BCE07B68D3F88830232B0ED12C
:105160007B6893F88030002B04D00323FB730A2361
:10517000BB733AE01023FB730923BB7335E07B68F4
:10518000D3F88830242B0ED17B6893F88030002B25
:1051900004D00323FB730A23BB7326E01023FB73A5
:1051A0000923BB7321E07B68D3F88830252B0ED10F
:1051B0007B6893F88030002B04D00323FB730A2311
:1051C000BB7312E01023FB730923BB730DE07B68F4
:1051D00093F88030002B04D00123FB730923BB73A9
:1051E00003E00223FB730823BB737B68D3F884308E
:1051F000DAB2BB7B43F05003DBB25BB2F97B0093C6
:105200000B4600217868344CA047B860BB68002B7F
:1052100001D0BB685CE07B680122DA677B68D3F869
:105220008830212B02D101237B7330E07B68D3F8D7
:105230008830222B02D101237B7328E07B68D3F8CE
:105240008830202B08D17B68DB6F1B015BB243F0F9
:1052500001035BB27B731AE07B68D3F88830232BA1
:1052600002D101237B7312E07B68D3F88830242BB2
:1052700002D101237B730AE07B68D3F88830252BA9
:1052800002D101237B7302E04FF0FF3320E07B6803
:10529000D3F88430DAB27B6893F8821097F90D3036
:1052A00000930B46012178680C4CA047B860BB689E
:1052B000002B01D0BB680BE07868094B9847024689
:1052C000BB681343BB607B68012283F88120BB6805
:1052D00018461437BD4690BDBD574000FD584000EC
:1052E0006D5A400090B5A3B000AFF860B9607A6025
:1052F0000023C7F884302BE00023C7F880301EE07D
:10530000D7F8802013465B001A44D7F88430D118B0
:10531000D7F8842013465B001A44D7F88030134432
:105320001A46BB68134493F9002007F188030B4425
:1053300003F8202CD7F880300133C7F88030D7F835
:105340008030022BDCDDD7F884300133C7F884309D
:10535000D7F88430022BCFDDFB68D3F88830203BB0
:10536000042B26D801A252F823F000BF9553400029
:105370008B534000815340009F534000A95340008D
:10538000AC4BBB6716237B6718E0AB4BBB671623A0
:105390007B6713E0A94BBB6716237B670EE0A54B29
:1053A000BB6717237B6709E0A44BBB6716237B67AA
:1053B00004E0A24BBB6716237B6700BF0023C7F83E
:1053C00084302CE0FA68D7F8843013444D331B78CE
:1053D00003F18002D7F884309B0007F188010B4469
:1053E00043F8502CD7F884309B0007F1880213440F
:1053F00053F8502C7B6F02FA03F3B96F1846904BA9
:1054000098470246D7F884309B0007F188010B4487
:1054100043F8502CD7F884300133C7F88430D7F8DC
:105420008430022BCEDD0023C7F884302FE0D7F87C
:1054300084307A68134493F900301846D7F8841002
:10544000804B83FB0132CB17D21A13465B00134407
:10545000CA1A930007F18802134453F8503C03FB27
:1054600000F2D7F884309B0007F188010B4443F821
:10547000742CD7F884309B0007F188021344002273
:1054800043F8442CD7F884300133C7F88430D7F878
:105490008430082BCBDD0023C7F8843060E0002384
:1054A000C7F8803053E0D7F8842013465B001A44D5
:1054B000D7F880301344FA6812339B00134400225B
:1054C0009A600023FB673AE0D7F8842013465B001C
:1054D0001A44FB6F1A44FB68A23253F82200FA6F99
:1054E00013465B001A44D7F8803013449B0007F141
:1054F0008802134453F8743C1946514B98470146AF
:10550000D7F8842013465B001A44D7F88030D018AF
:10551000D7F8842013465B001A44D7F88030134430
:10552000FA6812339B0013449B685A18F96800F11B
:1055300012039B000B449A60FB6F0133FB67FB6F08
:10554000022BC1DDD7F880300133C7F88030D7F89F
:105550008030022BA7DDD7F884300133C7F88430C0
:10556000D7F88430022B9ADD0023C7F8843052E04C
:105570000023C7F8803045E00023FB673AE0D7F806
:10558000842013465B001A44D7F88030D118D7F82E
:10559000842013465B001A44D7F8803013449B00E4
:1055A00007F18802134453F8440CD7F884201346BB
:1055B0005B001A44FB6F134407F18802134413F98C
:1055C000203C1C46FA6F13465B001A44D7F8803023
:1055D0001344FA6812339B0013449B6803FB04F3E3
:1055E000C2188B0007F188010B4443F8442CFB6F71
:1055F0000133FB67FB6F022BC1DDD7F8803001332D
:10560000C7F88030D7F88030022BB5DDD7F884306A
:105610000133C7F88430D7F88430022BA8DD07F1B6
:1056200044031946F868084B9847034618468C37D8
:10563000BD4690BD66666626333333139999990942
:10564000D170400056555555D9844000F0B589B009
:1056500000AFF860B9607A600022FA6145E04FF06F
:1056600000014FF00002C7E904120022BA612AE0EB
:10567000F9690A4652001144BA690A44F9681232BB
:1056800092000A44926815464FEAE576BA695200DC
:10569000B9680A44B2F90020120411464FEAE172D7
:1056A00001FB06FE05FB02F07044A5FB011210444D
:1056B0000246D7E90456491942EB0602C7E904122B
:1056C000BA690132BA61BA69022AD1DDFA69920077
:1056D00079688818D7E904128B0F43EA820394177C
:1056E0001A460260FA690132FA61FA69022AB6DDE5
:1056F000002318462437BD46F0BD000080B582B0B7
:1057000000AF78607B6840F283129A857B684FF423
:10571000C272DA857B6840F285121A867B684FF484
:10572000C3725A867B6840F287129A867B684FF470
:10573000C472DA867B6840F289121A877B684FF45C
:10574000C5725A877B6840F28B129A877B684FF448
:10575000C672DA877B6840F28D12A3F840207B681E
:105760004FF4C772A3F842207B6840F28F12A3F86F
:1057700044207B684FF4C872A3F846207B6840F24F
:105780009112A3F848207B684FF4C972A3F84A200D
:1057900000217868084B984701217868064B9847A4
:1057A00002217868044B984703217868024B984798
:1057B00000BF0837BD4680BD3D5A400090B587B058
:1057C00000AFF860B96011461A460B46FB711346EC
:1057D000BB7100237B61FB7963F07F03DBB2FB7459
:1057E000FA68BB680533DB001344998807F113039B
:1057F0000122F868194CA04702467B6913437B617C
:10580000BB79FB74FA68BB680533DB001344D988A5
:1058100007F113030122F868104CA04702467B6988
:1058200013437B6197F8283063F07F035BB2DBB2F0
:10583000FB74FA68BB680533DB001344198907F170
:1058400013030122F868054CA04702467B69134305
:105850007B617B6918461C37BD4690BDCDC84000B2
:1058600090B589B002AFF860B9603B601346FB7138
:1058700000237B613B68D9B2BB6A5BB2FA790093C3
:105880000B46B968F868174CA04702467B6913437A
:105890007B61F868144B984702467B6913437B6130
:1058A0004EF66020114B9847F868114B9847024616
:1058B0007B6913437B61BA6AFB6A3B21F8680D4C34
:1058C000A04702467B6913437B61B968F8680A4BBD
:1058D000984702467B6913437B617B6918461C37F6
:1058E000BD4690BDBD5740006D5A4000D9154000DF
:1058F000A15A4000A1CA40003D5A400090B587B06F
:1059000000AFF860B96011461A460B46FB711346AA
:10591000BB7100237B61FB79FB74FA68BB680533BC
:10592000DB001344998807F113030122F868214C26
:10593000A04702467B6913437B61BB79FB74FA681D
:10594000BB680533DB001344D98807F11303012238
:10595000F868184CA04702467B6913437B6197F8AF
:105960002830FB74FA68BB680533DB00134459899F
:1059700007F113030122F8680E4CA04702467B6929
:1059800013437B618123FB74FA68BB680533DB003A
:105990001344198907F113030122F868054CA04745
:1059A00002467B6913437B617B6918461C37BD4601
:1059B00090BD00BFCDC8400090B589B002AFF8607F
:1059C000B9603B601346FB7100237B613B68D9B231
:1059D00097F92830FA7900930B46B968F868124CA9
:1059E000A04702467B6913437B61F8680F4B9847D9
:1059F00002467B6913437B614EF660200C4B98474F
:105A0000F8680C4B984702467B6913437B61B96881
:105A1000F868094B984702467B6913437B617B69B1
:105A200018461C37BD4690BDFD5840006D5A4000D9
:105A3000D9154000A15A40003D5A400080B582B0BF
:105A400000AF786039607A683B680533DB00134447
:105A50001B89002219467868034B9847034618466D
:105A60000837BD4680BD00BFD5C9400080B582B0B3
:105A700000AF78607B681B7F43F02003DAB27B685D
:105A80001A777B681B7F1A4603217868034B984777
:105A9000034618460837BD4680BD00BFD5C9400043
:105AA00080B582B000AF78607B681B7F23F0200355
:105AB000DAB27B681A777B681B7F1A460321786805
:105AC000034B9847034618460837BD4680BD00BFC4
:105AD000D5C9400080B586B000AFF860B9607A6083
