:1000000000100020FD5A0000F95A0000F95A0000C3
:10001000F95A0000F95A0000F95A0000F95A000094
:10002000F95A0000F95A0000F95A0000F95A000084
:10003000F95A0000F95A0000F95A0000F95A000074
:10004000F95A0000F95A0000F95A0000F95A000064
:10005000F95A0000F95A0000F95A000045700000F2
:10006000F95A0000F95A0000F95A0000F95A000044
:10007000C5960000F95A0000F95A0000F95A00002C
:10008000F95A0000F95A0000F95A0000F95A000024
:10009000F95A000019630000F95A0000F95A0000EB
:1000A000F95A00009564000071640000F95A0000DC
:1000B000F95A0000F95A0000F95A0000F95A0000F4
:1000C000F95A0000F95A0000F95A0000F95A0000E4
:1000D000F95A0000F95A0000F95A0000F95A0000D4
:1000E000F95A0000F95A0000F95A0000F95A0000C4
:1000F000F95A0000F95A0000F95A0000F95A0000B4
:10010000F95A0000F95A0000F95A0000F95A0000A3
:10011000F95A0000F95A0000F95A0000F95A000093
:10012000F95A0000F95A0000F95A0000F95A000083
:10013000F95A0000F95A0000F95A0000F95A000073
:1001400010B5054C237833B9044B13B1044800E0D3
:1001500000BF0123237010BDA81C00200000000078
:10016000683E010008B5034B1BB10349034800E09A
:1001700000BF08BD00000000AC1C0020683E01006C
:10018000A3F5803A704700BF174B002B08BF134BF5
:100190009D46FFF7F5FF00218B460F461348144A92
:1001A000121A0AF024FB0E4B002B00D098470D4B7F
:1001B000002B00D098470020002104000D000D48BE
:1001C000002802D00C4800E000BF0AF0B5FA200079
:1001D000290004F055FD0AF089FA00BF000008006C
:1001E000000000000000000000100020401300206C
:1001F0003C2B002000000000000000004FF6FF73C1
:10020000A0F8DE344FF0FF33C0F8E034C0F8E43437
:10021000C0F8E834C0F8EC34A0F8F034002070479F
:1002200030B504460D46104689B000293CD0002A5E
:100230003AD0694602F0EAF804F1A801684604AA37
:1002400001F02BFF1E220799059802F0DFFA1E220B
:1002500004460699049802F0D9FA201A40F3513066
:100260001E222860DDE9060102F0D0FA1E220446B3
:10027000DDE9040102F0CAFA0599204440F3513047
:100280001E226860084602F0C1FA069904461E2242
:10029000084602F0BBFAC4F10054241A002044F3CB
:1002A0005134AC6009B030BD4FF0FF30FAE710B503
:1002B00078B171B16AB113680C681B1B0360536895
:1002C0004C681B1B436093688A689B1A83600020FC
:1002D00010BD4FF0FF30FBE710B50B4604468EB063
:1002E000002842D0002940D0184601A902F08EF81B
:1002F00005A901A802F09CFA089805994042C91383
:10030000C01302F027FB400010221A49206002F0BF
:100310007DFA20600C980D994042C913C01302F079
:1003200019FB400010221349606002F06FFA0B992C
:100330001E226060084602F069FAC0F1804001F0B8
:10034000FDFFC1130B98C01302F004FB4000102204
:100350000849A06002F05AFA2368A060002B02DA74
:1003600003F1B4732360002001E04FF0FF300EB0C2
:1003700010BD00BFB84B39000F2938B505461446EB
:1003800017D8022919D903390C2916D8DFE801F04A
:100390003F1515151515173C5415151539000A2963
:1003A0000BD8DFE801F0710A0A0A4C6E860A0A0AC5
:1003B0006B001939CBB20A2BF1D9204638BDA5F80C
:1003C000DE240921284600F02AFB20B1B5F8DE34EE
:1003D0009C4228BF1C460F21284600F020FB20B17C
:1003E000B5F8E0349C4228BF1C460A21284600F09C
:1003F00016FB0028E1D0B5F8E2349C4228BF1C4629
:10040000DBE7A5F8E024DCE7A5F8E224D9E7A5F8C6
:10041000EC240321284600F002FB20B1B5F8EC34AF
:100420009C4228BF1C460B21284600F0F8FA002801
:10043000C3D0B5F8EA34E0E7A5F8EA24E9E7A5F87F
:10044000E4441D21284600F0EAFA20B1B5F8E4346E
:100450009C4228BF1C462321284600F0E0FA20B128
:10046000B5F8E6349C4228BF1C461E21284600F001
:10047000D6FA0028A1D0B5F8E834BEE7A5F8E644DE
:10048000DFE7A5F8E844DCE7A5F8F04419212846A1
:1004900000F0C5FA20B1B5F8F0349C4228BF1C46E4
:1004A0001F21284600F0BBFA002886D0B5F8EE34AC
:1004B000A3E7A5F8EE44E9E70F2970B50446154611
:1004C00017D8022919D903390C2916D8DFE801F009
:1004D00052151515151516165215151516000A295B
:1004E0000BD8DFE801F0590A0A0A2A2A590A0A0A2F
:1004F0002A001939CBB20A2BF1D970BD092100F0BD
:100500008EFAB8B1B4F8DE640F21204600F087FA05
:1005100020B1B4F8E0349E4228BF1E460A2120468E
:1005200000F07DFA20B1B4F8E2349E4228BF1E46A6
:100530002E80E2E74FF6FF76E6E71D21204600F029
:100540006EFAA0B1B4F8E4642321204600F067FA03
:1005500020B1B4F8E6349E4228BF1E461E21204634
:1005600000F05DFA0028E3D0B4F8E834DDE74FF698
:10057000FF76E9E7032100F052FA50B1B4F8EC64D9
:100580000B21204600F04BFA0028D1D0B4F8EA3411
:10059000CBE74FF6FF76F3E71921204600F03FFA4C
:1005A00050B1B4F8F0641F21204600F038FA00285A
:1005B000BED0B4F8EE34B8E74FF6FF76F3E738B5BF
:1005C00090F88130054683B1002100F090F90121B7
:1005D0000446284600F08BF9204305D1284600F058
:1005E00093F9002385F8813038BD1846FCE713B530
:1005F00090F881300446002B41D1D0F8882090F843
:100600008030232A2ED1002B0BBF09220A2210236F
:10061000032342F0500200920021204694F88420E7
:1006200000F009F9E0B90123D4F88820E367A2F1CA
:100630002101994204D9202A1FD0233A022A20D826
:1006400000930121204694F8823094F8842000F031
:100650001CF928B9204600F050F9012384F88130B4
:1006600002B010BD242ACED0252ACCD0002B15BF35
:100670000922082201230223CBE71123E0E700200F
:10068000EEE74FF0FF30EBE72DE9F04F0B7899B034
:100690008DF800304B7804468DF803308B780025B8
:1006A0008DF80630CB7816468DF801300B7900F1C5
:1006B0004D098DF804304B790DF10C0A8DF8073097
:1006C0008B798DF80230CB798DF805300B7A8DF867
:1006D0000830D0F88830203B042B8BBF1627424AC5
:1006E000DFF80C8152F823809CBF404AD75619F896
:1006F000010B41468030B84001F0A6FD4AF82500C4
:100700000135032DF3D100210FAAB1FBF5F303EB63
:100710004303CB1A18A800EB830353F8543C7056DC
:1007200001314343092942F8043BEED14FF0000860
:100730002422002106A80AF05AF8424604F522773E
:100740000025A7F50E76BA464FF000090FAB46F824
:10075000042B03EB850B5BF829105AF8040B01F00E
:1007600073FD56F8043C09F103091844B9F1090F67
:100770004FF0000246F8040CEDD10135032DE2D113
:1007800008F10308B8F1090F07F10C07D8D106AD3D
:1007900004F12408464628464FF0000C10E0196D7D
:1007A0001EF9019B0C33B34201FB0977F7D10CF121
:1007B000010CBCF1030F40F8047C03F1040606D0E1
:1007C00050F8047B0DEB020EA6F12403E7E7033299
:1007D000092A05F10C05DDD1204606A902F049FAE7
:1007E00019B0BDE8F08F00BF70F0000084F0000089
:1007F000999999092DE9F0410027043A503001F107
:100800000408002384461D468E1E36F9024F5CF80C
:1008100004EB2404B045CEFB0435F6D19B0F03371F
:1008200043EA8503092F42F8043F00F10C00E8D1A8
:100830000020BDE8F081F7B500EBC10662F07F0251
:100840001F46B18D8DF807200DF1070301220546E3
:1008500003F0FFFEF18D0DF1070304460122284647
:100860008DF8077003F0F5FE9DF82030044363F027
:100870007F038DF8073001222846318E0DF10703E2
:1008800003F0E7FE204303B0F0BDF7B500EBC1076E
:100890001D46B98D8DF807200DF10703012206468C
:1008A00003F0D7FEF98D04460DF10703012230460F
:1008B0008DF8075003F0CDFE9DF82030798E44EA84
:1008C00000058DF8073001220DF10703304603F0D3
:1008D000C0FE812305438DF8073001223046398E52
:1008E0000DF1070303F0B5FE284303B0F0BD00EBA4
:1008F000C1010022098E03F0F6BE027F032142F0FF
:100900002002027703F0EFBE027F032102F0DF0234
:10091000027703F0E8BE002310B40C46A40803F1EC
:1009200001034FEA6101F8D1042BB8BF0423012170
:10093000994011605DF8044BD9B201F070B8002BFA
:1009400014BF0823002370B50D46D0F86041138012
:1009500064B1E30702D464080235F9E7B5F9003061
:100960005E1CF8D0168833431380F4E7D0F8643166
:10097000403103B970BDDD0706D5B1F90000441C54
:100980001EBF1488204310805B080231F1E700008D
:1009900002280BD00B38C0B21C2809D80123834091
:1009A00004481840003818BF0120704701207047E4
:1009B000002070470922901001280BD9831E012BBB
:1009C0000BD9031F032B0BD90838082894BF7020BC
:1009D000382070474FF4617070474FF4E1707047F2
:1009E000E120704730B40C464FF6FF718C4213D0B3
:1009F00040F265414C434FF47A715143B4FBF1F43A
:100A000012FB04F200EB4305013CA5F8BC2019469B
:100A100022B230BC02F09EB8002030BC70470123E7
:100A20004A09583250F8220001F01F0103FA01F17F
:100A300008407047F8B505460C464FF6FF7601EBC7
:100A40004207BC4201D13046F8BD28462178FFF765
:100A5000E6FF38B1637805EB4303B3F806319E42F5
:100A600028BF1E460234ECE7F8B54A2204460021AE
:100A7000BC3009F0BCFE00231221C82004F58372AB
:100A8000A3F10C05022D03D9A3F11F05012D1CD8DC
:100A900011800133252B02F10202F1D123460022FD
:100AA0000E274FF47A7005254FF0140CDFF884E020
:100AB0000E2A05D022F02006022E01D0182A0AD1D3
:100AC000A3F86871A3F86A0113E00F2B0CBFA4F818
:100AD00024111080DDE7A2F10901162903D82EFAAE
:100AE00001F1C90701D4032E20D1A3F86851A3F85E
:100AF0006AC10132332A03F10403D9D10123002052
:100B00004FF0C81284F83C32C823A4F83602C4F867
:100B10003802A4F85601A4F83E02C4F84002A4F832
:100B20004632C4F84822A4F84C32F8BDA3F8685104
:100B3000C8E700BF47007100A0F8501171B18023D1
:100B4000A0F85431B0F85C3143F08003A0F85C3178
:100B5000B0F842320133A0F842327047D0F8643125
:100B600013F40073F9D1A0F85431B0F85C3123F0DC
:100B70008003A0F85C31B0F84232013BEBE771B181
:100B80008023A0F85431B0F85C3143F08003A0F822
:100B90005C31B0F842320133A0F842327047B0F80D
:100BA0005031002BFAD1A0F85431B0F85C3123F069
:100BB0008003A0F85C31B0F84232013BECE790F8DA
:100BC0003A027047B0F85001704700000A3989B204
:100BD0000C2996BF024B034953F8211002F00CB8C0
:100BE00084F100002EBAE8001FB500230529CDE9E5
:100BF0000133039304D81B4B01931B4B02930EE06C
:100C00000A2903D8194B0193194BF7E70B290CD18B
:100C10004FF03332174BCDE901230123039301A990
:100C200001F0FBFF05B05DF804FB142903D8124B5B
:100C30000193124BE2E7162904D84FF033330193A6
:100C40000C4BDBE74B2906D80D4B0193A3F1AA33DC
:100C500003F14043D2E7E129E1D80A4B0193A3F124
:100C6000CC33CBE77DD2273D832DD8029224493A5D
:100C70006EDBB605CDCCCC0C25499234DBB66D0BC2
:100C800055555515666666065E4B2DE9F04F1D46B7
:100C9000044655F8040BA3B06968039058680BAA82
:100CA00003C22989D3F80E0011800490D3F81610DE
:100CB000D3F812000EAA03C2598BD8691180196AA1
:100CC00011AA03C2998CD3F8260011800590D3F89D
:100CD0002E10D3F82A0014AA03C2D3F8320017AD9D
:100CE0001060D3F83600D3F83A1009AA03C21A46A6
:100CF000A846D3F83E006E33069053F82C0C0790AC
:100D000052F8460B08902E4610685168083203C608
:100D10009A423546F7D11388414615223380204642
:100D2000FFF788FED4E95859AF07064609F48062F8
:100D300062D5B4F846123AB1B4F848328B4228BFB3
:100D40000B46A4F8063101E0A4F80611B4F85431BA
:100D50002BB1B4F82001864228BF0646B6B2B4F8DB
:100D600058312BB1B4F82201864228BF0646B6B2EC
:100D7000B4F856312BB1B4F82401864228BF064698
:100D8000B6B209F0800705F480131F4303D0052E87
:100D900028BF0526B6B2002D01DB280503D5052E98
:100DA00028BF0526B6B24246174B03F1180E9446EB
:100DB000186859680833ACE8030073456246F6D1F9
:100DC00018689B884146CCF80000ACF804300F222C
:100DD0002046FFF72FFEE903834609F4006340F144
:100DE000C081B4F84A228BB1B4F84C32934228BF88
:100DF0001346A4F808310BE0002AA7D0B4F8483213
:100E00009FE700BF8AF00000FAF00000A4F8082174
:100E1000002D01DB2A0506D5BBF1050F28BF4FF0D9
:100E2000050B1FFA8BFB4246D14B03F1100E944683
:100E3000186859680833ACE8030073456246F6D178
:100E400018680A22CCF8000041462046FFF7F2FD60
:100E500081462FB10F2828BF4FF00F091FFA89F9DB
:100E6000002D01DB2B0506D5B9F11C0F28BF4FF073
:100E70001C091FFA89F90222204603A9FFF7DAFDAF
:100E8000B345D84628BFB0461FFA88F8C84528BFE2
:100E9000C8461FFA88F8804528BF80461FFA88F8A0
:100EA000B8F1010F824640F06581637E012B04D1C9
:100EB000204684F8448200F090FD4FF6FF73B4F8AA
:100EC00042529E420CBF1E4646469B450CBF9B4667
:100ED000C34699450CBF9946C1469A450CBF9A46F0
:100EE000C246002D00F05281122E304628BF12203B
:100EF000FFF762FD4FF47A7797FBF0F086B2304649
:100F0000FFF75AFD0146204601F0CFFFC82E3546B7
:100F100040F2654328BFC8255D43B5FBF7F5ADB288
:100F20000D232A4631462046FFF75CFD0746B4F8FC
:100F3000563123B3122E28BF1226B0B2FFF73CFD64
:100F40004FF47A7393FBF0F086B23046FFF734FD2E
:100F50000146204601F0D0FFC82E354640F26542DA
:100F600028BFC8254FF47A735543B5FBF3F5ADB2EE
:100F70000F232A4631462046FFF734FD07434FF63C
:100F8000FF739E4248D0C82E354628BFC82540F280
:100F90006543ADB25D434FF47A73B5FBF3F5B4F836
:100FA0003632ADB2AB4213D029462046FFF70EFED3
:100FB000294601902046FFF717FE019B691E184342
:100FC000074309B2204600F032FDA4F83652074329
:100FD00005220BA92046FFF72DFD002301462A46D6
:100FE0002046FFF7FFFC0222074304A92046FFF733
:100FF00021FD072301462A462046FFF7F3FC052280
:1010000007430EA92046FFF715FD0C2301462A468B
:101010002046FFF7E7FC07434FF6FF739B4548D098
:101020005946C82928BFC82140F2654389B25943AF
:101030004FF47A73B1FBF3F1B4F838328DB2AB42AE
:1010400007D001392046C9B200F0D9FCA4F83852C3
:101050000743052211A92046FFF7ECFC01230146B6
:101060002A462046FFF7BEFC0222074305A9204678
:10107000FFF7E0FC0A2301462A462046FFF7B2FCB0
:101080000622074314A92046FFF7D4FC0523014696
:101090002A462046FFF7A6FC0422074309A920465A
:1010A000FFF7C8FC062301462A462046FFF79AFCB4
:1010B00007434FF6FF7209EA0A039BB293424CD0F2
:1010C000002306EA0B06B6B2964217930DD1B8F18B
:1010D000C80F28BF4FF0C80840F2654505FB08F56A
:1010E0004FF47A78B5FBF8F5ADB22946204617AA39
:1010F000FFF711FC4FF6FF739E4208BFBDF85C502E
:10110000994547EA000718D0022206A92046FFF7B2
:1011100091FC032301462A462046FFF763FC022286
:10112000064607A92046FFF785FC0B2301462A4601
:101130002046FFF757FC304307434FF6FF739A45AD
:101140000BD0022208A92046FFF774FC09230146B0
:101150002A462046FFF746FC0743384623B0BDE841
:10116000F08F002B3FF454AEB4F84C3241E600BF90
:1011700018F1000094F84432002B3FF49EAE002397
:10118000204684F8443200F01AFC96E62F46CEE65C
:1011900037B5044608461546FFF7FAFB00283DD14F
:1011A000A1F11103DBB21E2B07D8012202FA03F3CF
:1011B0007C4A1A40002A18BF12252046019100F0EF
:1011C0003BFB019901F15A0334F8232004EB81031E
:1011D000AA4238BF2A46B3F86A3192B29A4228BF6F
:1011E0001A464B1E2E2B30D8DFE803F0229B8E834D
:1011F0009ED32FD086868E2F2F988663A458585B57
:101200002F9EA1CDC0B5D0D6B8B8C02F2FCAB8B2C6
:10121000A4A4A72FAC48732FAFD96000204601913A
:1012200000F0EAFB01990028BAD14FF0FF3520E029
:10123000D4F864315D051FD5B4F84832934228BF15
:101240001346A4F80631A4F846222046FFF71CFDF9
:101250000546204600F0E1FB0190204600F012FD1B
:1012600001990246204600F0C3FC0543204600F0E9
:101270003EFB284603B030BD1346E2E7D4F86031A8
:10128000980709D5B4F84632934228BF1346A4F80C
:101290000631A4F84822D8E71346F8E7A4F81E213F
:1012A000D3E7A4F81421A4F82A21CEE7A4F820213A
:1012B000CBE7D4F86431190509D5B4F84C32934220
:1012C00028BF1346A4F80831A4F84A22BDE7134604
:1012D000F8E7D4F86031DB0309D5B4F84A32934219
:1012E00028BF1346A4F80831A4F84C22ADE71346F2
:1012F000F8E7A4F81A21A8E72046FFF73DF8A4F87C
:101300001001A4F82601A0E72046FFF735F8A4F85D
:101310001201A4F82801A4F82C0196E7A4F80C21E6
:1013200093E7A4F81C2190E7A4F80E218DE7A4F818
:101330002E218AE7A4F8442187E7A4F83A21A4F8EB
:101340004C2182E7A4F846217FE7A4F824217CE71A
:10135000A4F8302179E7A4F8402176E72046FFF78A
:101360000BF8A4F83601A4F848016EE72046FFF711
:1013700003F8A4F83801A4F84A01A4F84E0164E780
:10138000A4F8322161E7A4F842215EE7A4F83421F1
:101390005BE7A4F8182158E7A4F83E2155E7A4F824
:1013A000222152E7070030712DE9F04704469AB038
:1013B00008460D461646FFF7EBFA30BB204600F014
:1013C0003BFA94F83C7247BB002358221E4904A8FC
:1013D000039309F0E5F9002E00F004822946204627
:1013E000FFF71DFB30B9284602F02CFA01232044F8
:1013F00080F8AC32112D40F0FD814FF40063A4F869
:101400003E32B4F84232013319E0204600F0F4FADB
:101410000028D3D14FF0FF378EE10023204684F817
:101420003C3200F06CFA0746CEE74FF40053A4F8C4
:101430004032E6E7B4F8423226B101339BB2A4F859
:1014400042320AE0013BF9E72CF10000002E14BF04
:101450004FF480630023A4F85831292D04F5AD72B0
:1014600003D0A5F12D03022B0DD894F83B32002EAA
:1014700000F07581B4F85A11013341F00801A4F865
:101480005A1184F83B322B2D1DD81AAB03EB4503C0
:1014900033F958CCBCF1FF3F15D00123690904EBA7
:1014A000810105F01F0ED1F8600103FA0EF3002E42
:1014B00000F05E810343C1F86031B4F85A314CEA60
:1014C000030CA4F85AC1B4F85A11204601F0BBFA33
:1014D000B4F856318046B4F85A111BB141F40041BA
:1014E00041F00801204601F0EFFAB4F95A11B4F8BE
:1014F0005C31002944F24001B4F85A21AABF23F418
:10150000804343F480439BB20A4242F2205106BF1B
:1015100023F400539BB243F400530A42B4F8582119
:1015200008BF23F4805348EA000814BF43F48053F3
:101530009BB2002A00F0278143F48063B4F85691EF
:10154000A4F85C31B9F1000F06D04FF0804120467D
:1015500001F077FD4CF204092046B4F85C1101F06B
:1015600081FAD4F86021B04B40EA08081340002B00
:1015700040F00D8140F61801D4F86431194214BFCF
:101580004FF0010A4FF0000AA84B134023B9D4F8DA
:10159000643113F4DD6F01D04AF0020AB4F8583117
:1015A00013B9B4F856310BB14AF0020AB4F8543109
:1015B0000BB14AF0020A9E4B134023B9D4F86431B0
:1015C00013F0840F03D04AF0080A49F08009B4F8F8
:1015D00040221AF0010FB4F83E3218BF49F4807966
:1015E0001AF0020F43EA020318BF49F4007949EAEE
:1015F0000309B4F85A311FFA89F95A0548BF49F06E
:10160000400903F0170309F40062134306D04FF0BA
:101610008041204649F4404901F013FDB4F85C31A3
:10162000180606D54FF08041204649F4404901F0A4
:1016300008FDB4F85C3120465905B4F85A3148BF6A
:1016400049F01009DA0548BF49F00809494601F098
:1016500072FAA5F10903012B48EA000801D90F2D00
:101660000BD12946204604F58872FEF725FF29464E
:10167000204604F59372FEF71FFF05F0F703032BD6
:1016800040F088802946204604F58972FEF714FF51
:101690002946204604F59472FEF70EFF294620469F
:1016A00004F59672FEF708FF1F2D00F08880204693
:1016B000FFF7EAFA48EA0008204600F0AEF9019088
:1016C000204600F0DFFA01990246204600F090FA29
:1016D000B4F85A3148EA000873B9D4F860319B0372
:1016E0000AD4B4F856313BB90123204684F83C3281
:1016F00000F038F948EA00084AF08001204600F07E
:101700009BFB514640EA0808204601F002FA132DDF
:10171000814647EA08070AD14EB1204603A901F0E5
:1017200026FBD4F8A420039B9B1AC4F8A0302046C3
:1017300049EA070700F0DBF838461AB0BDE8F08741
:10174000B4F842321EB12022A4F856215BE6A4F878
:1017500056614DE031462046FFF7EEF97DE6013B4C
:10176000DBB2204684F83B3204A9FFF7E8F88AE6AA
:1017700020EA0303C1F86031204694F83B3204A903
:10178000FFF7DDF89FE623F480639BB2D6E64FF0C7
:10179000010AF9E6A5F11D03012B01D9232D0BD177
:1017A0002946204604F59B72FEF786FE2946204610
:1017B00004F5A472FEF780FE192D7FF475AF29465B
:1017C000204604F59C72FEF777FE2946204604F574
:1017D000A572FEF771FE2946204604F5A772FEF7B2
:1017E0006BFE64E7112D1AD1A4F83E62B4F84232C0
:1017F000013B24E6122D3FF418AE132D3FF41AAE30
:101800002E2D3FF423AE2D2D9AD02F2DA2D0292D91
:101810007FF423AE31462046FFF7B1F91DE6122DC5
:10182000EBD1A4F84062E1E7188E01E60A8E9EE251
:101830000C48108301F0A6B9002380F8B830704737
:10184000012970B5054603D0022926D000243CE0CA
:10185000037E03F001038AB1002BF7D1827E0621BB
:1018600002F0BF02827603F0CEF804462B7E43F0EE
:10187000010301202B7602F0E1FE26E003F0FF04D5
:101880001BB3827E062142F04002827603F0BBF851
:101890002B7E044623F00103EBE790F8264014F07A
:1018A000010412D09AB190F8B84074B1037E9B073E
:1018B000CCD4827E062142F02002827603F0A3F887
:1018C00004462B7E43F002032B76204670BD047E37
:1018D00014F00204F9D0827E062102F0DF02827643
:1018E00003F091F82B7E044623F00203C1E70122A6
:1018F000022180F8B820FFF7A3BF007E704737B5FC
:10190000012204461146FFF79BFF94F82730054655
:10191000022B07D1227F032142F0100220462277BA
:1019200002F0E1FE472301228DF8073007210DF177
:101930000703204602F08DFE94F8263005439B07EE
:1019400008D5227F032142F0C0022046227702F010
:10195000CAFE0543012202212046FFF771FF2843FA
:1019600003B030BD7F2337B501228DF80730072142
:101970000DF10703054602F06CFE0022044601212A
:101980002846FFF75DFF204303B030BD002313B5A9
:1019900004460DF10601ADF8043001F050F8BDF831
:1019A00006304FF4A8711A0A8DF804208DF805301E
:1019B0000222204601AB02F04CFE02B010BD07B57A
:1019C000702301228DF80730052142760DF10703BF
:1019D00002F03FFE03B05DF804FB07B540228DF82E
:1019E00007200022052142760DF10703012202F0B3
:1019F00030FE03B05DF804FB90F8B900704707B5FE
:101A000001228DF8071041770DF107034FF4807123
:101A100002F01FFE03B05DF804FB407F7047012316
:101A20008B400A46C3834FF4C07102F05CBE07B519
:101A30000B128DF804308DF805100222018401ABE1
:101A40004FF4887102F005FE03B05DF804FB00005E
:101A50002DE9F04700254FF0010804460E46914657
:101A600029461222A0F8B88080F8BA5018309A4659
:101A700008F0BDFE47F6017342460321638384F8F4
:101A8000276004F11C03204602F069FE064620464A
:101A9000FFF735FF554F42463B4629460643204651
:101AA00002F05DFE70232946064320463B7001F09C
:101AB00065FF94F827300321022B0CBF10222A4621
:101AC00006432277204602F00EFE52460643494660
:101AD000204600F0B0FF064340F0858094F82630A1
:101AE000204643F0020384F82630FFF74FFF0546F7
:101AF000204600F0C1FF4FF448710543204600F036
:101B0000F5FF4FF0020A3B464246102105432046AE
:101B100087F800A002F09DFD3B4642461221054396
:101B2000204687F8008002F094FDE42342462621F7
:101B300005433B7020463B4602F08BFD3B46424648
:101B400075210543204602F00AFE3B78424643F0E9
:101B5000080375213B7020463B4602F07AFD40F2B7
:101B60000113132163842046FFF749FF1321204608
:101B7000FFF75DFF3821204601F097F93821204614
:101B800001F0BAF932467621204602F0ACFD1F2260
:101B900068210543204602F0A6FD1E22682145EA81
:101BA0000009204602F09FFD3246662149EA0009FD
:101BB000204602F098FD3246672149EA0009204696
:101BC00002F091FD94F82630424643EA080351465C
:101BD00049EA000684F826302046FFF731FE204609
:101BE000FFF7C0FE06433046BDE8F087C41C002066
:101BF000F8B590F8283004460F46002B38D1012262
:101C0000A82100F1280302F0AAFD054619491A4B44
:101C1000781C07FB0333A0FB0101194494F9283019
:101C200094F82820002BBFBF02F07F02C2F59E620D
:101C30000632D317A4BF002302F2F64208F0A8FB35
:101C400000230E4A08F0A4FBB0F1004F71F100032D
:101C5000064628BF6FF00046094F3B68B34205D0E7
:101C60003146204600F0B9FF3E6005432846F8BDE6
:101C70000025CBE7F05A676635080F00A086010003
:101C8000C81C002090F824007047032973B505464E
:101C90000E4651DC012240F201110DF1060302F063
:101CA0005EFD9DF80630044623F03F0343EA4601FB
:101CB00041F0010101228DF806100DF1060340F2FA
:101CC0000111284602F0C5FC012204430DF107036F
:101CD0004FF48171284602F042FD9DF8072004432D
:101CE00002F0F80395F82220102A1BD011D8042AFC
:101CF0001AD0082A1AD0911E4A424A411A434FF478
:101D0000817128468DF8072002F0EDFC204302B0D7
:101D100070BD402A0CD0802A0CD0202A14BF00228B
:101D20000522EBE70422E9E70222E7E70322E5E7E1
:101D30000622E3E70722E1E74FF0FF30E7E770B55F
:101D400080F8241004460E46FFF79FFF3246617F5D
:101D500005462046FFF74CFFFA21B140054309B282
:101D6000204601F020F8284370BD90F82500704708
:101D7000032973B505460E4641DC01224FF48A71F2
:101D80000DF1060302F0EBFC9DF80630044603F06B
:101D9000C00295F8233042EA4602012B88BF42F088
:101DA0003902D2B24FF48A7128468DF8062002F02B
:101DB0009AFC95F8233040F21511083BDBB2182B42
:101DC00098BF104A44EA000498BFD65C28464FF0FA
:101DD00001020DF1070388BF002602F0C0FC9DF848
:101DE0000720044322F00302324340F21511284633
:101DF0008DF8072002F077FC204302B070BD4FF051
:101E0000FF30FAE7B8F1000073B580F825100546F9
:101E10000E46FFF7ADFF022303FA06F109B20446AE
:101E20002846019100F0EDFF01990443284601F096
:101E300012F8204302B070BD70B5C37E01F080057A
:101E40007F2B08BF45F0010504460E46E5B1880723
:101E500054BF38230023F107E37658BFE37E4FF0E9
:101E600007015CBF43F00703E376720758BFE37EC8
:101E70004FF001025CBF43F04003E376204604F1DB
:101E80001B0302F0E6FB05463307204603D5FEF7A9
:101E9000AEFB284370BDFEF792FBFAE7036830B54E
:101EA0000C684D6883FB04349B0F43EA8403446849
:101EB00084FB0545A40F44EA85041B1B8D688468D8
:101EC00084FB0545A40F44EA85041B1BCD68C46848
:101ED00084FB0545A40F44EA85041B1B136043687B
:101EE0000C684D6883FB04349B0F43EA8403046849
:101EF00084FB0545A40F44EA85042344CD68846827
:101F000084FB0545A40F44EA850423448D68C46816
:101F100084FB0545A40F44EA85041B1B536003683A
:101F20008C68CD6883FB04349B0F43EA84034468C8
:101F300084FB0545A40F44EA85041B1B0D688468D7
:101F400084FB0545A40F44EA850423444D68C46816
:101F500084FB0545A40F44EA8504234493608B6801
:101F60004468CD6883FB04349B0F43EA8403046810
:101F700084FB0545A40F44EA850423444C68856826
:101F80000968C06884FB054581FB0010A40F44EA82
:101F90008504890F1B1B41EA80010B44D36030BDCF
:101FA0000028F0B574DAB0F1404F6CDD01224042F8
:101FB0004BF2721398425EDD00254010984205F105
:101FC000FF35FADC4710C7F5404181FB0163F60B92
:101FD000C41746EA4346D81306FB04F307FB003355
:101FE000A6FB07600344F60B46EA4346C6F54046A7
:101FF00086FB0160F10B41EA4041C61301FB06FC80
:10200000A1FB013000EB4C00DB0B43EA40435C4397
:10201000C01307FB0044A3FB07032344C00B40EAA3
:102020004340C0F540404643C31701FB0366A0FB95
:102030000101EC0731444FEAD03040EA41404FEA19
:1020400065034FEAE13109D545F68225A0FB050479
:1020500005FB0141C00B013340EA4140002BBABFF0
:102060005B421841984080FB0003C00B40EA4340AC
:1020700002B14042F0BD45F6B80300259842A1DC0C
:1020800040000135FAE74FF0FF30F3E70120F1E7B8
:10209000B0F1804FFADA00228AE7436830B54C6825
:1020A0000D6883FB04349B0F43EA8403046884FBBC
:1020B0000545A40F44EA850423448D68846884FBA5
:1020C0000545A40F44EA85042344CD68C46884FB15
:1020D0000545A40F44EA85042344136043680C6853
:1020E0004D6883FB04349B0F43EA8403046884FB3C
:1020F0000545A40F44EA85041B1BCD68846884FB56
:102100000545A40F44EA85041B1B8D68C46884FB45
:102110000545A40F44EA8504234453604368CC6812
:102120008D6883FB04349B0F43EA8403046884FBBB
:102130000545A40F44EA85041B1B0D68846884FBD5
:102140000545A40F44EA850423444D68C46884FB14
:102150000545A40F44EA85041B1B93600368CC6803
:10216000456883FB04349B0F43EA84038C685B421D
:1021700084FB0545A40F44EA85041B1B4C68856855
:102180000968C06884FB054581FB0010A40F44EA80
:102190008504890F234441EA80010B44D36030BD9C
:1021A000002370B50E46044690B00868496808934D
:1021B00009AB03C3B068154618606A46204608A9F3
:1021C000FFF76CFE236868460493636804A95B42CA
:1021D0000593A3680CAA5B420693E3685B420793EE
:1021E000FFF75CFE0DAB03CB286018686960A86040
:1021F00010B070BDA83001F1100351F8042B9942C2
:1022000040F8042BF9D170471FB51446A83001AA35
:10221000FFF7C6FFDDED017AF8EEE77A67EE807A28
:10222000C4ED007ADDED027AF8EEE77A67EE807AA7
:10223000C4ED017ADDED037AF8EEE77A27EE800A45
:1022400084ED020A04B010BD80FB0110890F41EA41
:10225000800070470246006800282AD0010C09045B
:10226000002927D1000410601020116811F07F4F61
:1022700004BF09021160116804BF00F1080318B21D
:1022800011F0704F04BF09011160116804BF031DF4
:1022900018B211F0404F04BF89001160116804BFEB
:1022A000831C18B20029BFBF00F1FF33490818B2E0
:1022B000116070470020D8E70368194A70B593424F
:1022C00004460D4605DD5B1003604FF0FF332B60C5
:1022D0000DE0144EB3421EDCFFF7BCFF2368124A28
:1022E0002860934211DD5B1023600138286022686A
:1022F0000E4B0F4913448B420FD80E480E4B10441F
:10230000984294BF0120022070BDB342EFDC5B0015
:1023100023600130EAE70023D9E70320F4E700BF98
:10232000FC0BB958FD855C2CFB0BB958666666C67C
:10233000CCCCCC0C0AD7A3C014AE4701F0B5002812
:1023400085B001905BDD03A901A8FFF7B5FF0399F4
:1023500006460029D8BF0024019AC8BF01F0010435
:1023600002F1404383FB0205800F40EA8500012E05
:10237000A1EB0401A2EB60002BDD5A1002F1204218
:1023800082FB0325920F42EA850283FB02329B0FF8
:1023900043EA82035A1082FB0057AD0F45EA8705D6
:1023A000032EA0EB650014D19B1003F1204383FBA7
:1023B00002359B0F43EA850382FB0323920F42EA17
:1023C0008302521082FB0025930F43EA8503A0EBA2
:1023D00063002CB10B4B80FB03309B0F43EA800062
:1023E000002903DD4910084105B0F0BD0131FBD1E2
:1023F000054B80FB03309B0F43EA8000F4E700208D
:10240000F2E700BFCD3C412D9A79825AF8B5D0E968
:1024100000350646846883FB03309A0F85FB05531D
:1024200042EA8002A80F40EA8300C2F18042121AF9
:1024300084FB0440A40F44EA8004101B0F46FFF7FE
:102440007DFF3860336800207B607368BB60B368D1
:10245000FB60F8BD30B5044689B0084669461546AC
:10246000FFF7D4FF04F1A801684604AAFFF715FEA0
:10247000DDE90601049BDFED226A002B059C21DBD0
:1024800007EE904AB8EEE77A07EE900A27EE267A32
:1024900085ED007AB8EEE77A07EE901A27EE267AF5
:1024A00085ED017AB8EEE77A27EE267A85ED027A95
:1024B00007EE903AF8EEE77A67EEA67AC5ED037A72
:1024C00009B030BD624207EE102AB8EEC77A27EE97
:1024D000267A424285ED007A07EE102AB8EEC77AD6
:1024E00027EE267A4A4285ED017A07EE102AB8EEE9
:1024F000C77A27EE267A5B4285ED027AD8E700BFDD
:102500000000803090ED006AB7EE007AD0ED047ADA
:1025100076EE076A90ED085A36EEA70AF5EE005AF5
:1025200037EE467A30EE050A76EEE76A20EE250AA7
:1025300037EE276A76EEC56A77EE677A66EEA56AA9
:1025400036EE456AB5EEC00A26EE256A77EE857A44
:10255000F1EE10FAF5EEC06A67EEA57A48BF9FED7E
:10256000700AF1EE10FAB5EEC06A48BFDFED6C6A92
:10257000F1EE10FAF5EEC07A48BF9FED696AF1EE10
:1025800010FA48BFDFED667A10B52DED068BD0ED61
:1025900001AA90ED02AA90ED039AD0ED059AD0ED34
:1025A000068A90ED078AC1ED016AC1ED037A81EDDB
:1025B000000A81ED026A0C460BF0B4F984ED000AC2
:1025C00094ED010A0BF0AEF984ED010A94ED020AD4
:1025D0000BF0A8F984ED020A94ED030A0BF0A2F9BE
:1025E000D4ED006A94ED017AF4EEC76AF1EE10FAC8
:1025F00084ED030AD4ED027A22DBF4EEE76AF1EE11
:1026000010FA1DDBB4EEE60AF1EE10FA18D8F1EE7E
:10261000007A39EEC88A66EEA76A78EECA8AC8EEF2
:10262000267A3AEEC99AC4ED017AC8EEA67AC4EDCC
:10263000027AC9EE267AC4ED037ABDEC068B10BD92
:10264000F4EEC76AF1EE10FA1ED8B4EEE77AF1EEB6
:1026500010FA19DBB4EEC70AF1EE10FA14D8F1EE55
:10266000007A39EEC88A27EE277A3AEE899AC8EEC0
:10267000077A7AEE288AC4ED007AC9EE077AC4EDAB
:10268000027AC8EE877AD6E7F4EEE76AF1EE10FA3E
:1026900020D8B4EEE77AF1EE10FA1BD8B4EEE70AD0
:1026A000F1EE10FA16D8B1EE007A78EECA8A67EE2B
:1026B000877A3AEE899A88EEA77A39EE888A84ED8D
:1026C000007A89EE277A84ED017A88EE277A84ED04
:1026D000037AB2E7B4EEE60AF1EE10FAADDBB4EE3F
:1026E000C70AF1EE10FAA8DBB4EEE70AF1EE10FA31
:1026F000A3DBF1EE007A3AEEC99A20EE270A7AEED1
:10270000288AC9EE007A39EE888AC4ED007AC8EECC
:10271000807AC4ED017AC8EE007AC4ED027A8CE7C3
:102720000000000030B52DED028B97B00DAA0546D4
:10273000B0EE408A10464B1E083113F9014F07EEE8
:10274000904AF8EEE77A8B42E2EC017AF5D109A9DA
:10275000FFF7D8FE0424DFED298A9FED296AF7EE02
:10276000005AB6EE007A09AA01ABF2EC016AF5EE66
:10277000C06AF1EE10FA65FE867A77EEC77A46EE09
:10278000A87AFDEEE77A013CE3EC017AEDD1DFEDCA
:102790001D7ADFED1D6A68EE677A87EEA68A28EE5D
:1027A000078A029BB0EE480A5B420293039B5B429E
:1027B0000393049B5B4204930AF0C0FF20EE280AB7
:1027C000BDEEC00A8DED090AB0EE480A0A940AF07F
:1027D000F9FF20EE280ABDEEC00A05AA01A909A842
:1027E0008DED0B0A0C94FFF759FB11462846FFF7B5
:1027F00001FD17B0BDEC028B30BD00BF0000804E64
:1028000000000000DB0F49400000344380FB013131
:1028100030B5C2F12005B2F1200423FA02F001FA2A
:1028200005F540EA05005CBF41FA04F4204330BDE1
:1028300030B5D0E9003483FB03355A0F42EAC502B4
:1028400084FB0445630F43EAC5031A4402F1404286
:102850000A60D0E9013283FB02325B0F046843EA6D
:10286000C203C26882FB0424520F42EAC4029B1ACC
:102870004B6083680268C46883FB02325B0F43EAE3
:10288000C203426882FB0424520F42EAC40213448A
:102890008B60C368026883FB02325B0F43EAC203AA
:1028A000D0E9012482FB0424520F42EAC4021344FB
:1028B000CB600368846883FB03355A0F42EAC50284
:1028C00084FB0445630F43EAC5031A4402F1404206
:1028D0000A61D0E9023283FB02325B0F43EAC20392
:1028E000D0E9004282FB0424520F42EAC4029B1A40
:1028F0004B614368C268046883FB02325B0F43EAA2
:10290000C203826882FB0424520F42EAC4029B1A6B
:102910008B61D0E9003283FB02325B0F43EAC203D2
:10292000D0E9024282FB0424520F42EAC40213445B
:10293000CB61C368006883FB03345A0F42EAC402C8
:1029400080FB0004430F43EAC4031A4402F14042EF
:102950000A6230BDF8B581EAE17580EAE077A5EB5F
:10296000E175A7EBE077BD422B4606460C46B8BFA3
:102970003B46B3F5005F3DDCAF423FDC28460DB17E
:10298000FFF70EFB80FB0703C00B40EA434080FBD0
:102990000031DA0B1E4B42EA414282FB0331DB0B72
:1029A00043EA414303F594530F3383FB0231DB0BBE
:1029B00043EA4143A3F52453073B83FB0232DB0B7D
:1029C00043EA424303F5FF43643383FB0003C00B38
:1029D000AF4240EA4340C4BFC0F549401030002C2C
:1029E00012DA002EB5BFA0F5C930C0F5C9302038C5
:1029F0002030F8BD5B106D107F10BAE73846FFF746
:102A0000CFFA80FB0503BFE7002EB8BF4042F0E7D6
:102A10001AFBFFFF031248700B700846704703163D
:102A20000B7003144B700312C8708B70084670470C
:102A3000006800BA7047902392B200F013BB4FF4C5
:102A400080530B80704707B50B128DF804308DF85A
:102A500005100222402101AB01F06FFF03B05DF8C9
:102A600004FB0000034B0A121A7059700222422123
:102A700001F063BFCC1C00200023A7B50222019304
:102A8000402101AB074601F058FF01AB0546022289
:102A90004221384601F051FF01AB02224C2105448E
:102AA000384601F04AFF01AB02224E210544384668
:102AB00001F043FF022205448A21384601AB01F0B0
:102AC0003CFF284403B0A0BD13B5044608460023CC
:102AD00001A900B2ADF80430FFF79CFF02220346C3
:102AE0004C21204601F029FF02B010BD13B5044669
:102AF0000846002301A900B2ADF80430FFF78AFFB1
:102B0000022203464FF4FF71204601F016FF02B087
:102B100010BD13B504460846002301A900B2ADF864
:102B20000430FFF777FF022203468A21204601F096
:102B300004FF02B010BD07B50B0A8DF804308DF804
:102B4000051002224E2101AB01F0F7FE03B05DF843
:102B500004FB000037B500240B2998BF084B05463D
:102B6000ADF80440104698BF5C5C01A9FFF752FF26
:102B7000022203462146284601F0DFFE03B030BDA5
:102B8000D1F10000002373B504220D46019340F2F9
:102B9000E47101AB064601F044FE044601A8FFF7CC
:102BA00047FF01AB04224FF4FD612860304601F07D
:102BB00038FE044401A8FFF73BFF042240F2EC7109
:102BC000686001AB304601F02CFE044401A8FFF719
:102BD0002FFFA860204602B070BD13B5044608461A
:102BE00001A9FFF71CFF042203464FF49871204609
:102BF00001F0A3FE02B010BD002313B50446084641
:102C000001A90193FFF70BFF042203464FF48671DD
:102C1000204601F092FE02B010BD73B50E460023AF
:102C2000054601A930680193FFF7F9FE0422034627
:102C30004FF4B661284601F080FE01A90446706891
:102C4000FFF7EDFE042203464FF4B861284601F079
:102C500074FE01A90443B6F90800FFF7DBFE022267
:102C6000034640F2E451284601F067FE204302B0DB
:102C700070BD2DE9374C8B460023824601A9DBF855
:102C800000000193FFF7CBFE042203464FF4B87116
:102C9000504601F052FE01A90446DBF80400FFF79C
:102CA000BEFE042203464FF4BA71504601F045FEC1
:102CB00001A90444DBF80800FFF7B1FE0422034633
:102CC0004FF4BC71504601F038FE01A90444DBF812
:102CD0000C00FFF7A4FE042203464FF4BE715046D9
:102CE00001F02BFE01A92518DBF81000FFF797FE75
:102CF000042203464FF4C071504601F01EFE01A9A4
:102D00000544DBF81400FFF78AFE042203464FF463
:102D1000C271504601F011FE01A90544DBF818000C
:102D2000FFF77DFE042203464FF4C471504601F0C4
:102D300004FE01A90544DBF81C00FFF770FE042225
:102D400003464FF4C671504601F0F7FD01A9054452
:102D5000DBF82000FFF763FE042203464FF4C8713E
:102D6000504601F0EAFD284403B0BDE8308C002352
:102D700013B504220C4601934FF4587101AB01F0D6
:102D800050FD70B99DF804309DF8052002EB032238
:102D90009DF8063003EB02229DF8073003EB022377
:102DA000236002B010BDB1F57A7F13B504461CD084
:102DB00007DCFA291CD0B1F5FA7F1CD04FF0FF30A8
:102DC00011E0B1F5FA6F19D0B1F57A6FF6D14FF085
:102DD000005001A9FFF723FE0422034640F28C4174
:102DE000204601F0AAFD02B010BD4FF00060F0E7F0
:102DF0004FF00070EDE74FF08060EAE74FF0805051
:102E0000E7E7082913B5044619D006DC022919D0D2
:102E100004291AD04FF0FF300FE0102918D02029D4
:102E2000F8D14FF0005001A9FFF7F9FD0422034645
:102E30004FF4F071204601F080FD02B010BD4FF05C
:102E40000060F0E74FF00070EDE74FF08060EAE7D8
:102E50004FF08050E7E7082913B5044619D006DC87
:102E6000022919D004291AD04FF0FF300FE01029A1
:102E700018D02029F8D14FF4004001A9FFF7CFFD69
:102E80000422034640F2F441204601F056FD02B010
:102E900010BD4FF40030F0E74FF40020EDE74FF4A1
:102EA0008020EAE74FF48030E7E713B504460020BE
:102EB000E12901901AD006DC38290BD0702917D0EF
:102EC0004FF0FF3010E0B1F5E17F13D0B1F5617F35
:102ED000F6D10F2001A9FFF79DFD0222034640F223
:102EE0000A31204601F029FD02B010BD0320F1E7B0
:102EF0000120EFE70720EDE713B504460020E129A4
:102F000001901AD006DC38290BD0702917D04FF069
:102F1000FF3010E0B1F5E17F13D0B1F5617FF6D15C
:102F20000F2001A9FFF776FD022203464FF44271FC
:102F3000204601F002FD02B010BD0320F1E70120A0
:102F4000EFE70720EDE72DE9374C8B46002382465B
:102F500001A9DBF800000193FFF761FD042203469D
:102F60004FF45061504601F0E8FC01A90446DBF83B
:102F70000400FFF754FD0422034640F60451504676
:102F800001F0DBFC01A90444DBF80800FFF747FD72
:102F90000422034640F60851504601F0CEFC01A938
:102FA0000444DBF80C00FFF73AFD0422034640F628
:102FB0000C51504601F0C1FC01A92518DBF81000A6
:102FC000FFF72DFD042203464FF45161504601F0F6
:102FD000B4FC01A90544DBF81400FFF720FD04222E
:102FE000034640F61451504601F0A7FC01A90544E0
:102FF000DBF81800FFF713FD0422034640F61851D2
:10300000504601F09AFC01A90544DBF81C00FFF7CB
:1030100006FD0422034640F61C51504601F08DFC8B
:1030200001A90544DBF82000FFF7F9FC0422034660
:103030004FF45261504601F080FC284403B0BDE8D3
:10304000308C002313B50446084601A90193FFF70D
:10305000E6FC042203464FF48871204601F06DFC23
:1030600002B010BD2DE9F04F994690F82630804609
:103070009B070F46154685B044D5002005B0BDE836
:10308000F08F102C234628BF10235FFA8BF29EB2DC
:1030900012FA83F3B3F5807FC8BFA3F5807632467A
:1030A00053465946404601F048FC0028E6D1B24458
:1030B000B6B2A41B5E44A4B21FFA86FB002CE0D17A
:1030C000002DDAD0102D2C4628BF102454FA89F395
:1030D000B3F5807FC8BFA3F58074224649466B468E
:1030E000404601F09EFB22463946684607F048FB01
:1030F00060B92744A4B22D1B04EB0903ADB21FFA3B
:1031000083F9DDE714468A46CB46D7E74FF0FF3018
:10311000B4E730B5048864BA0C8024040AD53BB106
:103120005C8801345C80B3F854400134A3F8544007
:10313000082400E002240D886D040DD513B11D8C08
:1031400001351D840C343BB11D8901351D81B3F857
:1031500056500135A3F856500D88AD0404D50634F9
:1031600013B19D8B01359D830D88ED0404D5083482
:1031700013B15D8901355D810D882D0504D50C34B1
:1031800013B1DD8B0135DD830D886D0504D50E345B
:1031900013B1DD8A0135DD820D8815F4007F18BF7B
:1031A0000634ED0504D50E3413B11D8D01351D8592
:1031B0000D88AD0604D50C3413B19D8801359D8072
:1031C0000D88ED0604D5043413B19D8C01359D8422
:1031D000098811F0080103D04188023449BA89B244
:1031E000480448BF02348D0448BF0234C80411802B
:1031F00048BF0234490506D5023423B1B3F85C1048
:103200000131A3F85C101288120606D5063423B1EA
:10321000B3F85E200132A3F85E20A01C30BD0B681D
:103220001BBA03604B681BBA43608B681BBA836090
:1032300070470B885BBA03804B885BBA43808B88EE
:103240005BBA8380704768B110F087030AD1020728
:1032500006D539B121F4E941003918BF01214B42AB
:10326000184670474FF0FF33FAE773B501220DF1AE
:1032700007030C466821064601F071FA9DF8071015
:10328000054621F01F010C430122682130460DF153
:1032900007038DF8074001F0DCF9284302B070BD48
:1032A000F7B504460627227F032102F03F0222776A
:1032B000204601F018FA1F2106462046FFF7D5FFE9
:1032C0001E2106432046FFF7D0FF002506430222B9
:1032D0007021204684F89C5001AB01F040FAB0B157
:1032E0004FF0FF33C4F8983056EA000316D11DB1F1
:1032F0007B1E13F0FF07D6D103212046227F42F028
:10330000C002227703B0BDE8F04001F0ECB99DF8AF
:1033100004309DF8055005EB0325E5E703B0F0BD4B
:103320002DE9F743002489461C6090461F4602227F
:10333000702101AB064601F012FA054628B1C6F825
:103340009800204603B0BDE8F0839DF804309DF856
:10335000054014EB032402D101233B60F1E7A145B2
:103360000DD23046FFF79CFF4FF0FF33C6F8983080
:1033700001233B600024E4E73D44AC42E1D9671BF4
:10338000102F28BF102772213A46304608EB05035C
:1033900001F0E5F981460028EED03046FFF780FFC6
:1033A000C6F89890E6E737B505460C4609B1002304
:1033B0000B800122192128460DF1070301F0CFF9F6
:1033C00014B19DF8073023800122182128460DF101
:1033D000070301F0C4F92CB123889DF8072043EAC4
:1033E0000223238003B030BD2DE9F74F1C46002394
:1033F0000D4609688146B1F5806F17460193138029
:1034000017DB0026D5F800A0DFF888B0B24522DC33
:10341000002C3DD00020E38B628A1A446282A28A8B
:103420001344A382E28AE3881344E38003B0BDE837
:10343000F08F184A01AB0A44C1F58061FFF770FFB5
:103440002B681844019B2860002BDAD000234FF032
:10345000FF302B60EAE7234669460DF102020BEBD1
:103460000600FFF756FEAAEB060398428046CFDC23
:10347000BDF80210BDF80000FFF7E5FE18B14846A0
:10348000FFF70EFFE2E73B88464401333B80BDE790
:103490002046CBE7741D0020F8B5B1F99A300746F5
:1034A000002B0D46164680F2B280114605F12C0025
:1034B000FFF7BFFEB5F92C30941DDB036B63B5F944
:1034C0002E30DB03AB63B5F93030DB03EB63B5F8CB
:1034D0009A3058040AD5214605F14000FFF7A9FEAD
:1034E000A11D05F14600FFF7A4FE0C34B5F89A3093
:1034F000990412D5214605F17400FFF79AFE05F1F3
:10350000580201463846FDF775F923680634C5F8B8
:10351000943034F8023CA5F89830B5F89A30DA04C3
:1035200048BF08341B0504D521462846FFF777FE1F
:103530000C34B5F89A305F050BD5214605F10C0027
:10354000FFF76DFE637B227B1B0443EA0263AB61E2
:103550000E34B5F89A20D00642BF54F8043B1BBA8B
:103560002B67D1050BD5214605F11C00FFF757FE4F
:10357000637B227B1B0443EA0263AB620E34B5F823
:103580009A301A0648BF06349B0610D5214605F12D
:103590006400FFF744FE23680C34C5F8883054F803
:1035A000083CC5F88C3054F8043CC5F89030B5F8A8
:1035B0009C305F0404D534F8022B52BAA5F87A2067
:1035C000980404D534F8022B52BAA5F87C20D9040B
:1035D00004D534F8022B52BAA5F87E205A0504D53A
:1035E00034F8022B52BAA5F886201B0609D5238889
:1035F00006345BBAA5F8843054F8043C1BBAC5F80D
:1036000080300123A01CC5F8A030801BF8BD1446F3
:103610005DE700002DE9F0471D461B688246032B3D
:10362000894690462EDD184C0023184804F19C0270
:1036300004F19A01FFF76DFD2B6806468342134F94
:1036400003DADAF89800BDE8F087B4F89A103B1D69
:1036500011F0080F07F10202214618BF1A46504622
:10366000FFF71AFF2B689A1B2A601AB13846B9195E
:1036700007F0A3F8B4F89A30A9F80030B4F89C30F9
:10368000A8F800300020DEE7D01C0020741D0020C8
:10369000034638B1054A03CA18605960106898603B
:1036A000002070474FF0FF30704700BF041D00201E
:1036B00058B1074BB3F940200280B3F94220428051
:1036C000B3F944308380002070474FF0FF307047DB
:1036D000D01C002040B1064BD3F846200260B3F85E
:1036E0004A308380002070474FF0FF30704700BFA2
:1036F000D01C002010B578B171B16AB114680B68A4
:103700001B1B036054684B681B1B43608B689268EB
:103710009B1A8360002010BD4FF0FF30FBE70000D4
:10372000034638B1054A03CA1860596010689860AA
:10373000002070474FF0FF30704700BFD01C0020C2
:10374000034638B1054A03CA18605960106898608A
:10375000002070474FF0FF30704700BFDC1C002096
:10376000034638B1054A03CA18605960106898606A
:10377000002070474FF0FF30704700BFEC1C002066
:10378000034638B1054A03CA18605960106898604A
:10379000002070474FF0FF30704700BF281D002009
:1037A000034638B1054A03CA18605960106898602A
:1037B000002070474FF0FF30704700BF341D0020DD
:1037C00028B1044BB3F884300380002070474FF0D9
:1037D000FF307047D01C002028B1044BD3F8803054
:1037E0000360002070474FF0FF307047D01C00206E
:1037F00028B1044BB3F886300380002070474FF0A7
:10380000FF307047D01C0020014BB3F97A0070479D
:10381000D01C0020014BB3F97C007047D01C002065
:10382000014BB3F97E007047D01C0020014B986A11
:10383000704700BFD01C0020014B9869704700BF43
:10384000D01C002001382E289ABF024B185C14208F
:10385000704700BFFDF10000024608B50846FFF7BB
:10386000F1FF131893F8AC0210B1421E83F8AC229A
:1038700008BD0A460123002100F0DEBE00234FF000
:103880008042C0F87432C0F87832C0E92A23C0E917
:103890002C3301239FED080A80F8743280F87832C7
:1038A00080F87C32C0F88822C0F89822C0F8A8229C
:1038B00000F51D71FEF736BF00000000D0B50446CC
:1038C000FDF7D2F8204600F0BDFE2046FCF796FC3E
:1038D000002200260027A4F8F224C4F8F42410469D
:1038E000FFF7B0FF0132593004EBC000332AC0E9C2
:1038F0000067F4D10020D0BD08B51346426942B13B
:103900000A460221FEF7A4F8003818BF0120404201
:1039100008BD0A460121F5E711F0FD0310D1126838
:10392000022A06D0042A07D0082A07D0102A22D15A
:1039300003231946FEF768BA0123FAE70223F8E7E2
:10394000012B01D0052914D11368FA2B0BD0B3F544
:10395000FA7F0AD0B3F57A7F09D0B3F5FA6F0AD1AE
:103960000321FEF7ECB90021FBE70121F9E7022171
:10397000F7E7002070474FF0FF307047002280F8D3
:10398000442209B1FEF729B8FEF719B8F0B502F0E4
:10399000F703042B04468BB01FD101A8034601F1A5
:1039A0002402F1EC017AFEEEC17A8A42E3EC017A5C
:1039B000F7D104F27D22134604F2862550F8041B49
:1039C000891703F8011B9D42F8D1204604F51D71AB
:1039D0000BB0BDE8F040FCF757BE032A01D9052A19
:1039E0002BD101AB1A461D4601F12400F1EC017AFE
:1039F000FEEEC17A8142E2EC017AF7D104F51D773F
:103A00003E4604F27D2153F8042B921706F8012B51
:103A10008E42F8D19FED0A0A39462046FEF782FE13
:103A200029462046FFF78FFA32460546394620469A
:103A3000FCF72AFE28430BB0F0BD0020FBE700BFD7
:103A400000000000132998BF0B4B70B50C461646BA
:103A50008CBF2C21595CD2B20546FDF7A5FC40B9BC
:103A600036B900220023593405EBC404C4E900230D
:103A700070BD4FF0FF30FBE7E9F10000132998BF5C
:103A8000124B2DE970430C4616468CBF2C21595C15
:103A900092B20546FDF77CFBA0B94FF47A724FF065
:103AA00000084FF00009564304F1590305EBC30326
:103AB0003934C3E90089230105EB0414EE5060603A
:103AC000BDE870834FF0FF30FAE700BFE9F1000076
:103AD0009023FFF7C7BA00002DE9F04F2DED048BBE
:103AE000002315460022D7B00E460DF11201CDE994
:103AF0000F33CDE91133CDE91333CDE90833CDE9E7
:103B00002133ADF81230ADF81430ADF8163007930C
:103B10000D93ADF838300A932393ADF8183004466E
:103B20000B920C92FFF73FFCBDF8123003F4817347
:103B3000002B5ED001F08EF89FED778A8346884691
:103B400000270DF1F00A662239465046ADF81A708A
:103B500006F04DFE534620460DF11A0207A9FFF765
:103B600043FC002851D0012239466C4FA1F11103CA
:103B7000DBB21E2B03D802FA03F33B4209D10846FD
:103B8000FFF760FE593004EBC00344F830B0C3F8CF
:103B9000048001313329E9D1BDF8123099050AD5E5
:103BA00000238DF8F03001933CAB00930D21D4E954
:103BB000CC233046A847BDF812305A050AD5002359
:103BC0008DF8F03001933CAB00930721D4E9C0237A
:103BD0003046A847BDF812309B040AD500238DF863
:103BE000F03001933CAB00931321D4E9D823304645
:103BF000A84794F83C3213B12046FDF7B3FE0020ED
:103C000057B0BDEC048BBDE8F08F8146A9F11103DC
:103C1000DBB21E2B05D8012202FA03F33F4A1342FE
:103C20001ED13AF8192032BB09F10109B9F1330F5D
:103C3000ECD1DFED3B8ABDF81A305A1EADF81A20E0
:103C40004BB1204607AB0DF1160205A9FFF7E2FCC8
:103C5000074600286CD0079B002B7FF471AF9BE7D1
:103C60004846FFF7EFFD593004EBC00344F830B08D
:103C7000C3F80480D8E74846FFF7E4FD271897F813
:103C80007033F3B100F139010B0104EB0111496804
:103C9000E3580291A3FB02310393029B00F1590CFC
:103CA00002FB0311039B04EBCC0EBBEB030344F8B4
:103CB0003C304FF0000368EB0101CEF8041087F8A8
:103CC000703304EBC007D7E9B23153EA010C17D1C6
:103CD00000F13903190154F801C004EB0313D3F8C0
:103CE00004E0ACFB021302FB0E32BBEB010168EBFC
:103CF000020204EB0010C7E9B212C0E9E2CE93E77A
:103D000004EB0017BBEB030068EB0101002306F096
:103D10003FFBC7E9E20187E7000080470700007129
:103D200000007A43000000380000FA3A00008037B3
:103D3000BDF814305A0440F1CF802046FDF7A2FFB1
:103D400081460DA8CDE92A77CDE92C77CDE92E77EC
:103D5000FFF7AEFCBDF934301FED0E0A2A93BDF912
:103D6000363020462B93BDF938302AA92C930123F5
:103D700003FA09F307EE903AF8EEE77A67EEA87ACD
:103D800015AA27EE800AFEF73FFA2B212046FCF702
:103D900046FEE0B12B212046FFF75EFDB8B93CAFEF
:103DA0003A462AA904F1A800FEF7FAF9D4E9B813B3
:103DB000D4F8B8030A18D4F8BC13304643EB010317
:103DC00008A9CDE90071C4E9B8230321A8470DA8CB
:103DD000FFF780FCBDF934301FED2D0A2D93BDF99E
:103DE000363020462E93BDF9383018AA2DA92F93CE
:103DF000FEF70AFAFFF70EFDB4F9F234002B00F0DB
:103E00004B830023C4F8F404A4F8F23404212046C0
:103E1000FCF705FE002838D004212046FFF71CFDE2
:103E200098BB2046FDF72EFF2A9B02308340204698
:103E30002A93FDF727FF2B9B0230834020462B93CC
:103E4000FDF720FF2C9B023083402DAA2AA91EAF2C
:103E50000FA82C93FFF74EFC3A4620460FA91FED02
:103E60004E0AFEF7D1F9D4E9B413D4F898030A182E
:103E7000D4F89C13304643EB010304F2F441CDE93E
:103E80000071C4E9B4230121A84710212046FCF7A2
:103E9000C6FD08B310212046FFF7DEFCE0B9D4E9E7
:103EA000F601159B3C93169B3D93179B3E93189BE5
:103EB0003F93199B40931A9B4193D4E9BC2312185A
:103EC00043EB010304F2F44101913CA90091304617
:103ED0000521C4E9BC23A847BDF91430002B3BDA07
:103EE0000FA8FFF7D5FB2A212046FCF798FD28B341
:103EF0002A212046FFF7B0FC00BB3CAF3A460FA991
:103F000004F1A800FEF74CF93C9BD4F8A803DB139E
:103F10003C933D9BDB133D933E9BDB133E93D4E9E7
:103F2000B6130A18D4F8AC13304643EB010308A9C2
:103F3000CDE90071C4E9B6230221A847012120463A
:103F4000FCF76DFD002840F0AF820A212046FCF707
:103F500066FD002840F0AF82BDF814309B0629D5DD
:103F60000FA8FFF71DFCFFF75BFC0DF184090A9019
:103F70000FA920464A461FED930AFEF745F9022194
:103F800020460AAFFCF74BFDA0B102212046FFF707
:103F900063FC78B9D4E9CA23D4F84804D4F84C14A3
:103FA000121843EB010330460C21C4E9CA23CDE9C2
:103FB0000097A847BDF814309F0458D50FA8FFF705
:103FC000DFFB0E2120469DED0F9ADDED109A119F2B
:103FD000FCF725FD00284AD00E212046FFF73CFCC7
:103FE000002844D1F8EEC97A1FEDB09A67EE897ABD
:103FF000CDED3C7A07EE907AF8EEE99AF8EEE77AA2
:1040000069EE899A67EE897A2DA92046CDED3E7A30
:10401000CDED3D9AFDF70EFCDDED2D7AF8EEE77A59
:1040200067EE897ACDED3F7ADDED2E7AF8EEE77A0C
:1040300067EE897ACDED407ADDED2F7AF8EEE77AFA
:1040400027EE899A8DED419AFFF7EAFBD4E9BA236E
:104050000A90D4E9F201121843EB01030AAF3CA91C
:10406000009130460421C4E9BA230197A847BDF85E
:104070001430180540F1DA8012A8FFF751FB0F2128
:104080002046FCF7CCFC18B30F212046FFF7E4FBD9
:104090000746E8B9204630AA12A9FEF7DBF9339BA0
:1040A000D4F818043C93309BD4F81C143D93319BF6
:1040B00001973E93329B3F93D4E9C423121843EBFC
:1040C00001033CA9009130460921C4E9C423A84753
:1040D00024A9204612AAFCF7A3F809212046FCF7E0
:1040E0009EFC80B309212046FFF7B6FB58BBD4E9FC
:1040F000D223DDED247ADFEDC56AB8EEE77ADDED97
:10410000257A27EE267A8DED2D7AB8EEE77ADDED69
:10411000267AF8EEE77A27EE267A67EEA67AD4F8C2
:104120008804D4F88C14121843EB010309A90191F7
:104130002DA9009130461021C4E9D2238DED2E7AAD
:10414000CDED2F7AA8470A212046FCF768FC00280D
:104150006CD00A212046FFF77FFB002866D19FED37
:10416000AC6ADDED1B5AF4EEC65AF7EE007AF1EEBA
:1041700010FAF6EE006A27FE867A37EE667A05EECA
:10418000887ADDED1C5AF4EEC65ABDEEC77AF1EE20
:1041900010FA8DED2D7A27FE867A37EE667A05EED7
:1041A000887ABDEEC77A8DED2E7A9DED1D7AB4EE3C
:1041B000C67AF1EE10FA67FE867A77EEE67A47EE77
:1041C000087AFDEEE77A2DAA24A92AA8CDED2F7A48
:1041D000FCF76DF8D4E9D423DDED2A7ADFED8B6AA4
:1041E000B8EEE77ADDED2B7A27EE267A8DED277A89
:1041F000B8EEE77ADDED2C7AF8EEE77A27EE267A4C
:1042000067EEA67AD4F89804D4F89C14121843EBFD
:10421000010309A9019127A9009130461121C4E9A0
:10422000D4238DED287ACDED297AA847BDF8143036
:1042300059056DD512A8FFF783FA0B212046FCF72C
:10424000EEFB58B30B212046FFF706FB30BB34AA28
:1042500012A92046FEF7FEF8FFF7EEFA07EE900AE5
:10426000FAEEE17A379BD4F828043C93349BD4F8D7
:104270002C143D93359BCDED0B7A3E93369B3F93AB
:10428000D4E9C623121843EB01030BA901913CA901
:10429000009130460A21C4E9C623A84703212046DD
:1042A000FCF7BDFBA0B303212046FFF7D5FA074674
:1042B00070BB12A92AA8FCF70FF8D4E9D623DDEDCC
:1042C0002A7ADFED526AB8EEE77ADDED2B7A27EE37
:1042D000267A8DED2D7AB8EEE77ADDED2C7AF8EEC0
:1042E000E77A27EE267A67EEA67AD4F8A804D4F8FF
:1042F000AC14121843EB01032DA900913046122192
:10430000C4E9D62301978DED2E7ACDED2F7AA847FB
:10431000BDF81430DA0533D512A8FFF721FA1421BD
:104320002046FCF77CFB58B314212046FFF794FA93
:1043300030BB38AA12A92046FEF78CF8FFF776FAB0
:1043400007EE900AFAEEE17A3B9BD4F838743C937E
:10435000389BD4F83C143D93399B0CA83E933A9B70
:1043600001903F93D4E9C823D21943EB01033CA940
:10437000009130460B21C4E9C823CDED0C7AA84743
:10438000BDF816301B0649D50023224AADF89C30F3
:10439000106851682A932D933CAB03C390680DF1CC
:1043A000F009186027A8FFF70BFA2AA8FFF714FAFC
:1043B0002DAFBDF89C3099F800A01AEA132200F046
:1043C000AC802046FCF7FEFB50B199F90130062184
:1043D0002D9300233046CDE90073D4E9BE23A847CE
:1043E000BAF1100F0CD129212046FCF718FB38B187
:1043F00000230F21CDE90033D4E9D0233046A8476C
:1044000009F102093FAB4B45D3D107E000008037EB
:1044100000000000DDF1000000008030BDF8163023
:104420005F050BD506AF3846FFF7E2F900230E21F2
:10443000CDE90073D4E9CE233046A847BDF8143047
:10444000D8067FF5F8AB13212046FCF7E8FA0028E0
:104450003FF4EFAB002200232DA92046CDE93C23F9
:10446000FEF785FCD4F8A0202D9BD4F8A4109B1A4D
:104470000022924208BF8B42CDE93C323FF4D9ABD7
:10448000C4F8A4303CAB019200930821D4E9C223C4
:104490003046A847FFF7CDBBD4F8F43483421CBFA5
:1044A0000123A4F8F234B1E401212046FFF7D4F946
:1044B00000287FF44AADFFF7A7F909902046FDF7E1
:1044C00054FC012707FA00F300EE103AB8EEC00AD8
:1044D0005FED2F7A30EE000A0DF16C0A20460FA92D
:1044E000524620EE270AFDF78FFE394620460DF191
:1044F0002409FCF794FA00283FF42EADD4E9B21356
:10450000D4E9E2070A1843EB070300213046C4E967
:10451000B223CDE900A9A8471EE513EA0A0F3FF42C
:104520006FAF20460292FCF74DFB00283FF468AFC6
:1045300099F90130029A5B42CDE900722D93062170
:10454000D4E9BE235AE700BF38B528B94E21094B3C
:10455000094A0A4806F0ACF8C5689D4207D3D0E97D
:104560000004A047002818BF6FF0020038BD6FF0AC
:104570000400FBE782F70000ECF200002CF20000E0
:1045800038B528B95C21094B094A0A4806F090F869
:1045900005699D4207D384680068A047002818BFBA
:1045A0006FF0020038BD6FF00400FBE782F70000F7
:1045B000CFF200002CF20000722910D86F2912D817
:1045C000102906D80E290ED8053902290BD9012049
:1045D00070471839012994BF0020012070477629BF
:1045E00003D07E39F6E7FCF7EABA0020704737B50A
:1045F00090F8DB3404468B420D461AD080F8DB1469
:1046000000F2DA4201237F210192FFF79DFF88B972
:1046100094F8DA34204623F0310343EA051184F894
:10462000DA1401237F21019A03B0BDE83040FFF77F
:10463000A7BF002003B030BDFFF786BF64235843F7
:1046400000F033BB7E2380F8DB34FF2380F8DC34BA
:1046500070472DE9F84F994605460E46904601F001
:104660007F0AFDF74AF9C30727D4012228461146DD
:10467000FDF7E6F8044631462846FFF79DFF28B1CE
:10468000002202212846FDF7DBF804432846C6F342
:10469000C711FFF7ACFF0027044347450FD331464E
:1046A0002846FFF789FF28B1012202212846FDF79D
:1046B000C7F804432046BDE8F88F0024DBE7A8EBE9
:1046C000070BBBF1100F28BF4FF0100B0AEB0701CF
:1046D0005B46284609EB0702C9B2FFF751FF0443C6
:1046E000E8D15F44D9E72DE9E74106460F468DF84A
:1046F000072001F07F08FDF700F9C3072DD4012240
:1047000030461146FDF79CF8054639463046FFF71E
:1047100053FF28B1002202213046FDF791F80543EE
:10472000C7F3C7113046FFF762FF41460543012337
:1047300030460DF10702FFF723FF394605433046A7
:10474000FFF73AFF28B1012202213046FDF778F841
:104750000543284603B0BDE8E0810025D5E72DE9F3
:10476000F04F85B0994606460F46904601F07F0A05
:10477000FDF7C3F8C3072CD4012230461146FDF7DC
:104780005FF8044639463046FFF716FF28B100228D
:1047900002213046FDF754F804433046C7F3C711F1
:1047A000FFF725FF00250443454596F8273012D32F
:1047B000022B34D039463046FFF7FEFE28B10122E5
:1047C00002213046FDF73CF80443204605B0BDE821
:1047D000F08F0024D6E7A8EB050BBBF1100F28BF24
:1047E0004FF0100B0AEB0501022B30465B46C9B2B5
:1047F0000CBF0DEB050209EB0502FFF7A5FE044314
:10480000002CE2D15D44CFE710336B4413F8103C29
:1048100009F802300132D3B24345F5D3CAE700228A
:10482000F9E72DE9F0470024984686B005460E4684
:104830001746CDE90244CDE90444FDF75EF8B8F12E
:10484000000F77D0C30705D4012228461146FCF794
:10485000F7FF044631462846FFF7AEFE28B1002296
:1048600002212846FCF7ECFF044300212846FFF70D
:10487000BEFE95F8DC24330A9A4244EA00048DF81F
:1048800006300CD001237E2128460DF10602FFF7E9
:1048900077FE044316D19DF8063085F8DC344FF0DE
:1048A000000ABA4512D395F82730022B40D0314682
:1048B0002846FFF781FE28B1012202212846FCF795
:1048C000BFFF0443204606B0BDE8F08701237C21EA
:1048D00028460DF107028DF80760FFF751FE0443EB
:1048E000F0D1A7EB0A09B9F1100F28BF4FF010095A
:1048F00095F827307D21022B08BF02AA4B46284697
:104900000CBF524408EB0A02FFF71EFE04460028C3
:10491000D8D14E44CA44B6B2C3E718336B4413F837
:10492000103C08F802300132D3B2BB42F5D3BEE7E7
:104930000022F9E74FF0FF34C4E72DE9F34798462A
:10494000064689461746FCF7D8FFB8F1000F57D046
:10495000C30734D4012230461146FCF771FF0446E8
:10496000002202213046FCF76BFF00210443304651
:10497000FFF73DFE96F8DC244FEA19239A4244EAF9
:1049800000048DF806300CD001237E2130460DF155
:104990000602FFF7F5FD04430DD19DF8063086F8B9
:1049A000DC344FF0000ABA450BD301220221304615
:1049B000FCF746FF0443204602B0BDE8F087002420
:1049C000CEE701237C2130460DF107028DF80790D8
:1049D000FFF7D6FD0443EED1A7EB0A05102D28BF43
:1049E00010257D212B46304608EB0A02FFF7C8FD53
:1049F00004460028DFD1AA444D441FFA85F9D2E7C6
:104A00004FF0FF34D7E773B50C46C1F3C711064624
:104A10008DF80720FFF7EBFD012305460DF1070296
:104A2000304604F07F01FFF7ABFD284302B070BDB4
:104A300070B5012400259FED136AF7EE005AB6EE1B
:104A4000005A04FA02F2ECB2A14200D870BD00EBA9
:104A50008406D6ED006AF5EEC06A07EE902AF1EE04
:104A600010FAB8EEE77A65FE867A77EEC57A47EEF9
:104A7000267AFDEEE77A17EE906A013543F8246056
:104A8000E1E700BF00000000113011289ABF024B7F
:104A900053F820000148704754F4000008F3000068
:104AA0000122014B1A70704778210020F0B50121D6
:104AB00085B03A2002F0B2FC012200231046032107
:104AC00003F0FAFC00224749032001F0A5FC06464A
:104AD000202000F00DFE054630B3434C43492068CA
:104AE00004F08DFA4249206804F089FA00F0B6FD1E
:104AF00000F0B5FD3F4B404A0093404945232068F4
:104B000004F07DFA2B463E4A3E49206804F077FACD
:104B1000284600F0CBFD3C49206804F070FA334988
:104B2000206804F06CFAFEE700F02AFF054630B377
:104B30002D4C2E49206804F062FA2D49206804F0BB
:104B40005EFA00F08BFD00F08AFD2A4B2A4A0093A2
:104B50002A494823206804F052FA2B46284A29495A
:104B6000206804F04CFA284600F0A0FD2649206891
:104B700004F045FA1D49206804F041FAFEE700F010
:104B800079FC224F05463B682BB1D421204B214AAA
:104B9000214805F08DFD214C19464FF49F622046B7
:104BA000039305F024FE1E4A656162601D4A3C6065
:104BB000A2604FF48042C4E9032200F099F800F0AB
:104BC00077F8194900F04AF9012032460321CDE96E
:104BD0000000039B03F0F6FB05B0BDE8F04000F0D9
:104BE0005FB900BFA14A00006027002098F70000CD
:104BF0009CF40000CEF50000A1F40000AAF400002F
:104C0000B6F40000B9F40000CEF4000074210020D6
:104C1000DFF40000B4F50000F6F4000008220020E4
:104C200079540000C954000094F5000010B5064CFA
:104C3000237843B10021054A0548FEF74DFF72B6BF
:104C40000023237062B610BD782100204553000078
:104C50000822002070B504F097FB4FF47A740E46DA
:104C6000054604F0ABFB0246A5FB0401002304FB50
:104C7000061105F08DFBA0FB040304FB013170BDA0
:104C800008B504F043FDFFF711FF04F04CFDFFF7FA
:104C9000CDFFFAE710B5044602F010F9204602F005
:104CA000A5F9BDE8104002F081B9FFF7F3BF00009D
:104CB00010B50A4C0A49206804F0A1F900F0CEFCB6
:104CC00000F0CDFC0749206804F099F9BDE81040D8
:104CD00043F2DD7204490548FEF7FABE6027002062
:104CE00098F70000D7F50000F8F700000822002030
:104CF000FF232DE9F7434B480DF107018DF80730ED
:104D0000FEF7B7FD484C49490546206804F077F99D
:104D100000F0A4FC00F0A3FC9DF8072044492068A3
:104D200004F06DF99DF80730E02B6BD13D48FEF79C
:104D3000A5FD3E49206804F062F900F08FFC00F008
:104D40008EFC3C49206804F05AF943F2DD723A497E
:104D50003448FEF7D1FD054678B13449206804F0A7
:104D60004EF900F07BFC00F07AFC3449206804F036
:104D700046F9284603B0BDE8F0832C49206804F0CA
:104D80003EF900F06BFC00F06AFC2D49206804F04D
:104D900036F92E46DFF8BC80224FDFF8BC9026F0B3
:104DA0000803042B0CBF49464146F2B2384601368F
:104DB000FEF7ECFD142EF2D10221224A1948FEF72B
:104DC000ABFD00211F4A1748FEF7A6FD03211E4A2E
:104DD0001448FEF7A1FD01211B4A1248FEF79CFD75
:104DE000194A05210F48FEF797FD0E48FEF766FDAC
:104DF0000E49206804F003F900F030FC00F02FFCAD
:104E00001249B3E70949206804F0F9F800F026FCDC
:104E100000F025FC9DF807200D49206804F0EFF80C
:104E2000A7E700BF082200206027002098F70000B5
:104E3000E7F5000073F60000F8F70000FEF500004B
:104E40002BF60000001000200410002042F60000A5
:104E500055F60000C0F700009CF7000030B5041EB6
:104E600085B015DA0B4D039128680B4904F0C7F89B
:104E700000F0F4FB00F0F3FB20462D68FFF704FE82
:104E800023460090039A2846044904F0B8F8FEE748
:104E900005B030BD6027002098F7000095F60000AF
:104EA00070B5194C194D1A4E2946206804F0A7F820
:104EB00000F0D4FB00F0D3FB1649206804F09FF803
:104EC000012209213046FEF7BDFD1349FFF7C6FF59
:104ED000124A09211368304643F4007313603222EA
:104EE000FEF7CCFD0E49FFF7B9FF2946206804F014
:104EF00086F800F0B3FB00F0B2FB20680949BDE87A
:104F0000704004F07CB800BF6027002098F70000D4
:104F100008220020A7F60000DFF600000022002093
:104F200001F7000027F700002DE9F04F00222DEDDA
:104F3000088B274E0368726082683360013B044629
:104F400097B0B260402B55D8DFE813F09A019A0170
:104F5000AB019A0154005400540054009A019A0184
:104F60009F0154005400440091014400CB01CB0147
:104F7000C8019F015400CB0154005400CB01CB0168
:104F80005400CB01540054005400C101C10154002D
:104F90005400540054005400540054005400540071
:104FA0005400540054005400540054005400540061
:104FB000540054005400540054005400CB015400D9
:104FC000540054005400540054009101910100BF5A
:104FD0007C210020102203211044CB4BFFF728FD39
:104FE00010220321C94B04F11C00FFF721FD94F8A6
:104FF0002830F360706904F09FFE0022C44B04F077
:1050000005FF0446B0690D4604F096FE0022C04B31
:1050100004F0FCFE8246F0698B4604F08DFE00220F
:10502000BB4B04F0F3FE524606460F465B46504625
:10503000594604F0EBFE41EC190B22462B46204664
:10504000294604F0E3FE53EC192B04F029FD324607
:10505000804689463B463046394604F0D7FE024634
:105060000B4641EC1B0B4046494604F019FD024635
:105070000B460020A74904F011FD41EC100B08F08D
:105080001DFC42464B4640464946B0EE40AAF0EE73
:1050900060AA04F005FD02460B4600209D4904F07D
:1050A000FDFC53EC1A2B41EC180B2046294604F06A
:1050B000ADFE3246804689463B465046594604F08E
:1050C000A5FE02460B464046494604F0E9FC02466E
:1050D0000B4604F0E5FCB0EE481AF0EE681A41EC1D
:1050E000100B08F0E9FB002251EC100B8A4B04F086
:1050F0008DFE83A3D3E9002304F0B2FF53EC1A2BF7
:1051000041EC180B5046594604F080FE324680466A
:1051100089463B462046294604F078FE02460B4667
:105120004046494604F0BAFC02460B4604F0B8FC7F
:105130000022784B8046894605F0F8F8002840F0B8
:10514000D380002240464946744B05F0D1F8002830
:1051500040F0CF8049EC108B08F07AFB002251EC34
:10516000100B6D4B04F052FE65A3D3E9002304F04D
:1051700077FF53EC1B2B8046894651EC190B04F04A
:105180008FFC02460B4604F08BFC02460B460020C7
:10519000604904F083FC53EC1A2B41EC190B3046A8
:1051A000394604F033FE524606460F465B4620461B
:1051B000294604F02BFE02460B463046394604F0E1
:1051C0006FFC02460B4604F06BFCB0EE491AF0EEA1
:1051D000691A41EC100B08F06FFB002251EC100B28
:1051E0004D4B04F013FE46A3D3E9002304F038FF2F
:1051F00004460D464A4E4022002106A805F0F7FA63
:10520000484A8DED008B4021CDE90445CDE9028966
:1052100006A806F07DF94449306803F0F0FE00F07E
:105220001DFA00F01CFA06AA4049306803F0E7FEB8
:105230004022002106A805F0DAFA40213C4A8DED13
:10524000008BCDE90445CDE9028906A806F060F996
:1052500006A806F099F902463648002306A9006818
:1052600001F0A8FD17B0BDEC088BBDE8F08F1E2241
:105270000421254B1030FFF7DBFB94F82430B8E60F
:1052800010220321204B1044AFE61E2204211E4BA6
:105290001030FFF7CDFB10220121274B04F1200035
:1052A000E9E7102201211044174BFFF7C1FB102240
:1052B0000121224B04F11400FFF7BAFB204B10220E
:1052C000012104F11800FFF7B3FB237F91E6036986
:1052D0003361436973618369B3618BE60369336149
:1052E00088E60369337485E64FF00008DFF8249000
:1052F00030E74FF00008DFF824902BE7AFF3008091
:1053000000000060FB2109408C2100209821002032
:105310000000103E0000F03F008066400000F0BF3B
:105320006027002064F7000098F7000081F7000074
:1053300084F70000381000209C21002090210020DC
:10534000942100202DE9F04190461F46484B9AB029
:105350005E5C4C22DDE92045002107A805F047FAF4
:105360000696013ECDE90887202E2FD8DFE806F00B
:10537000313179312E2E2E2E3831432E2E115111EE
:105380006C6C74432E6C2E2E6C692E6E2E2E2E7924
:1053900079006B461E4604F11807324620686168A2
:1053A000083403C2BC421646F7D193E807000AACA2
:1053B00084E807000DAB03AA07CA83E807002B782F
:1053C0008DF84030002106A8FFF7AEFD1AB0BDE809
:1053D000F081206861680AAB03C3A0681860EEE73B
:1053E000206861680AAB03C3A0681860FEF70CFA76
:1053F0008DF84000E6E72B680AAA0E9304F1100529
:10540000134620686168083403C3AC421A46F7D1DA
:10541000D8E70AAA04F11005134620686168083429
:1054200003C3AC421A46F7D1FEF7EEF90446FEF785
:10543000F1F9E4B2C0B2844228BF04468DF83C4082
:10544000C0E723680A93BDE70123FBE701230A9322
:1054500023788DF82830B5E7206861680AAB03C36C
:10546000B0E7206861680AAB03C3A0681860A9E7C9
:10547000E4F700000120704770B50E460120144685
:105480001D46FFF707FC012000F002FA46F08001FC
:105490000C4803F0DDFC0B4803F0CAFC094E254420
:1054A000AC4204D1002000F0F3F9002070BD0021CF
:1054B000304603F0CDFC304603F0BAFC04F8010B93
:1054C000EEE700BF00C0055070B50E46012014463F
:1054D0001D46FFF7DFFB012000F0DAF906F07F013F
:1054E0000B4803F0B5FC0A4803F0A2FC084E254423
:1054F000AC4204D1002000F0CBF9002070BD304652
:1055000014F8011B03F0A4FC304603F091FCEFE714
:1055100000C0055008B5012000F018F9202000F067
:1055200015F9BDE80840402000F010B908B5032186
:10553000802002F02BFB03214FF4806002F026FB59
:1055400003214FF4906002F021FB08214FF4C0606A
:1055500002F01CFB08214FF4F06002F017FB082159
:105560003E2002F013FB08212D2002F00FFB00204B
:1055700008BD000008B5134B1B68C3F30743012B9C
:105580000ED1114B04205A6E4FF480230F49520361
:1055900058BF0F4A4B6601F51041086258BF536669
:1055A00003F0CAFC00F00BF903F058FC03F078FCA0
:1055B00003F0ACFCFFF7BAFF03F060FCBDE8084065
:1055C00000F0F2B80080E00F008000500090005022
:1055D00000A0005008B500F0F5FE00F019F800F04A
:1055E0001DF8BDE8084000F029B808B500F07EF8C5
:1055F00003F050FE03F084FDBDE8084003F066BDF3
:10560000704700F02DB87047704770477047000032
:10561000014800F045BB00BFD82F0100014800F051
:1056200006BC00BFF02F010018B1034B186000202A
:1056300070472520704700BF5C27002010B5054C3F
:105640000549206801F0BAFA2068BDE81040FFF76C
:10565000EBBF00BF381000201410002070477047C7
:10566000012208B5074B1A700022074B1A7004225A
:10567000064B1A701F22064B1A7003F087FC054B6D
:10568000186008BD3C110020642700203D11002057
:105690003E11002060270020024B0349186803F0E8
:1056A000AEBC00BF602700200830010070B50C4C74
:1056B0000C490646206803F0A2FC03F067FC05468F
:1056C000206803F057FC3046FFF7E6FF284603F05A
:1056D00051FC20680449BDE8704003F090BC00BF55
:1056E000602700200A3001000C3001000F207047B5
:1056F000082808B516D00DDC022803DC002811DCD0
:105700009F2102E00428FBD176210F4800F0B6FA71
:105710000E2013E020280AD0402810D01028EFD106
:105720008821F2E7012304220621022003E001235D
:1057300004221846114602F0BFFE002008BD0123D6
:1057400004220721F1E700BF0F300100082808B547
:1057500016D00DDC022803DC002811DCEB2102E06E
:105760000428FBD1C2210F4800F088FA0E2013E074
:1057700020280AD0402810D01028EFD1D421F2E7F9
:10578000002304220621022003E004220023114604
:10579000012002F091FE002008BD00230422072111
:1057A000F1E700BF0F30010008B501213A2001F0F8
:1057B00035FEFFF7AFFEBDE8084000F013B9012148
:1057C0003A2001F02BBE00000422014B1A647047FE
:1057D00000E0035030B52A4D89B001AC0FCD0FC4A5
:1057E00095E8070084E807000124264B21464FF482
:1057F000207003938DF8124001F010FE21462820FE
:1058000001F00CFE21463A2001F008FE002304229C
:105810001946022002F050FE2246214600230220B3
:1058200002F04AFE022100230846042202F044FE50
:10583000234604220221204602F03EFE124803F0D5
:10584000BBF9114801A903F085FA1C2200200F4B77
:10585000C3F81C26D3F8342642F00202C3F83426DB
:10586000D3F82C2642F4803242F00202C3F82C26F0
:10587000D3F8302642F00212C3F8302609B030BD0A
:1058800050300100404B4C0000C0055000C0035098
:1058900008B1FFF799BF0422014B1A64704700BF9B
:1058A00000D0035038B504460B4D7F212846FFF742
:1058B0008BFF03F0CDFA284603F0BAFA21012846FF
:1058C00001F0F00103F0C4FA284603F0B1FABDE894
:1058D00038400020FFF7DCBF00C0055070B505461A
:1058E000C0F3C71065F07F0514460E46FFF7DAFFD8
:1058F000E9B20D48FFF768FF03F0AAFA0A4803F07F
:1059000097FA094D2644B44204D1BDE87040002006
:10591000FFF7BEBF0021284603F09AFA284603F09D
:1059200087FA04F8010BEEE700C0055070B5054694
:105930000E460D4CC0F3C710FFF7B4FF05F07F0112
:105940002046FFF741FF03F083FA204603F070FA88
:105950003146204603F07CFA204603F069FABDE8A0
:1059600070400020FFF794BF00C0055008B58021AB
:105970000620FFF7DBFF642003F032FD002008BDA6
:1059800007B5FFF727FFFFF7F1FF10210320FFF70F
:10599000CDFF012100200DF10702FFF79FFF9DF8C9
:1059A0000730E02B01D0EA2B0ED101210620FFF7B2
:1059B000BDFF1E2003F014FD0F20C021FFF7B6FF2E
:1059C000002003B05DF804FB1020FAE70822014B29
:1059D0001A67704700D003500822014B1A677047BE
:1059E00000E00350F0B5404D89B001AC0FCD0FC4BD
:1059F00095E8070084E80700012401213A2001F01E
:105A00000DFD3A4F0121282001F008FD384B3846A2
:105A100001A903938DF8124003F09CF92346042258
:105A20000021022002F048FD2246214600230220E8
:105A300002F042FD022123460846042202F03CFD0A
:105A4000042203212346022002F036FD4FF0021308
:105A5000284D0226C5F83036A3F58033C5F82C361C
:105A60001C23C5F834664FF44870C5F81C3603F0A3
:105A700065FE1420FFF7B0FF03F060FE2320FFF760
:105A8000A5FF03F05BFEB9213846FFF7A5FF03F041
:105A9000D5F9FFF79BFF002330461A46194602F05E
:105AA0000BFD002321461A46304602F005FD234631
:105AB00031463046002202F0FFFC2346002203213B
:105AC000304602F0F9FC384603F076F80021282031
:105AD000C5F83016C5F82C16C5F83416C5F81C16CE
